:020000040800F2
:1000000000000120290500088D1200088F12000849
:1000100091120008931200089512000800000000D9
:10002000000000000000000000000000971200081F
:1000300099120008000000009B1200089D120008A1
:1000400071050008710500087105000871050008B8
:1000500071050008710500087105000871050008A8
:100060007105000871050008710500087105000898
:100070007105000871050008710500087105000888
:100080007105000871050008710500087105000878
:100090007105000871050008710500087105000868
:1000A0007105000871050008710500087105000858
:1000B0007105000871050008710500087105000848
:1000C0007105000871050008710500087105000838
:1000D0007105000871050008710500087105000828
:1000E0007105000871050008710500080000000096
:1000F0000000000000000000000000000000000000
:1001000000000000000000007105000871050008F3
:1001100071050008710500087105000871050008E7
:1001200071050008710500087105000871050008D7
:1001300071050008710500087105000871050008C7
:1001400071050008710500087105000871050008B7
:10015000000000000000000000000000000000009F
:10016000000000000000000000000000000000008F
:10017000000000000000000000000000000000007F
:10018000000000000000000000000000000000006F
:10019000000000000000000000000000000000005F
:1001A000000000000000000000000000000000004F
:1001B000000000000000000000000000000000003F
:1001C000000000000000000000000000000000002F
:1001D000000000000000000000000000000000001F
:0401E0005FF8E0F1F3
:1001E40010B5054C237833B9044B13B10448AFF36D
:1001F40000800123237010BD0C00002000000000CB
:10020400C01E000808B5034B1BB103490348AFF3F4
:10021400008008BD0000000010000020C01E00087F
:1002240053B94AB9002908BF00281CBF4FF0FF3159
:100234004FF0FF3000F074B9ADF1080C6DE904CE55
:1002440000F006F8DDF804E0DDE9022304B07047AD
:100254002DE9F0478C460446089E002B4BD18A4278
:10026400154667D9B2FA82F24AB1C2F1200701FAFF
:1002740002F320FA07F7954047EA030C94404FEA4B
:10028400154EBCFBFEF71FFA85F80EFB17C307FBE0
:1002940008F9210C41EA0343994509D9EB1807F100
:1002A400FF3180F01C81994540F21981023F2B44B3
:1002B400A3EB0903B3FBFEF00EFB103300FB08F1C4
:1002C400A4B244EA0344A14209D92C1900F1FF3332
:1002D40080F00781A14240F2048102382C4440EAB4
:1002E40007400027641A1EB10023D440C6E9004326
:1002F4003946BDE8F0878B4209D9002E00F0EC8026
:100304000027C6E9000138463946BDE8F087B3FA4C
:1003140083F7002F48D18B4202D3824200F2FB8044
:10032400841A61EB030301209C46002EE0D0C6E949
:10033400004CDDE702B9FFDEB2FA82F2002A40F097
:100344008F800127491B4FEA15481FFA85F9B1FB35
:10035400F8FE08FB1E1109FB0EF04FEA144C4CEAA0
:100364000143984207D9EB180EF1FF3102D29842AB
:1003740000F2CD808E461B1AB3FBF8F008FB103355
:1003840009FB00F9A4B244EA0344A14507D92C1996
:1003940000F1FF3302D2A14500F2B6801846A4EB67
:1003A400090440EA0E409EE7C7F12005BB4022FA4B
:1003B40005FC4CEA030C21FA05F44FEA1C4EB4FB8D
:1003C400FEF91FFA8CF80EFB194420FA05F3B94024
:1003D40009FB08FA19430B0C43EA0444A24502FA48
:1003E40007F200FA07F30BD91CEB040409F1FF3000
:1003F40080F08880A24540F28580A9F10209644416
:10040400A4EB0A04B4FBFEF00EFB104400FB08FA54
:1004140089B241EA0444A24508D91CEB040400F162
:10042400FF316BD2A24569D90238644440EA0940DD
:10043400A0FB0289A4EB0A044C454146CE4654D3A2
:1004440051D0002E69D05A1A64EB0E0404FA05F553
:1004540022FA07F3FC401D43C6E90054002747E78E
:100464009540C2F1200321FA03F04FEA1548B0FB8E
:10047400F8F71FFA85F908FB170024FA03F39140F3
:1004840007FB09FC0B43190C41EA00418C4504FAB3
:1004940002F407D9691807F1FF3031D28C452FD9FE
:1004A400023F2944A1EB0C01B1FBF8F008FB101C3E
:1004B40000FB09FE99B241EA0C418E4507D969183F
:1004C40000F1FF3318D28E4516D902382944A1EB26
:1004D4000E0140EA07473AE73746304608E70F4639
:1004E400E6E61846FBE64345ABD2B8EB020169EBFE
:1004F4000C0201389646A4E71846E8E7084695E753
:100504000746CFE781467BE702382C4447E7AEF144
:10051400020E2B442FE7384607E73746E8E600BFCC
:10052400704700BF002103E00B4B5B58435004317C
:100534000A480B4B42189A42F6D30A4A02E00023B7
:1005440042F8043B084B9A42F9D300F0ABFE01F0A9
:1005540083FC00F0DDFD70475C1F000800000020F4
:100564000C0000200C0000200C010020FEE700001D
:10057400012800D070474FF6FF739942FAD1034B1C
:10058400034A1A6000221A61F4E700BF2800002021
:10059400E01E000810B5084C0021204600F016F8B3
:1005A4000021204600F09EF800224FF40841204626
:1005B40000F01CFA10BD00BF2800002008B54FF65B
:1005C400FF710120FFF7D4FF08BD0000F8B50F4606
:1005D4001A4E00224FF48071304601F047F8184C4F
:1005E40000224FF40051204601F040F8154DEF6011
:1005F400154B4FF080421A614FF480421A61012278
:100604004FF40051204601F031F8052000F0BEFE01
:1006140000224FF40041204601F028F8AD68ADB245
:1006240001224FF40041204601F020F801224FF44A
:100634008071304601F01AF82846F8BD00100140D8
:100644000014014000180140000C014070B50E4632
:1006540015461C4601E0013CA4B2A4B101224FF4AA
:100664000051094801F002F8084BDE602B46002BCC
:10067400F1D0074A4FF0804111614FF4804111617C
:10068400013B9BB2F3E770BD001401400018014028
:10069400000C01402DE9F8430C469146DFF84080F8
:1006A40000224FF40051404600F0E0FF0A4FFC6086
:1006B4000A4C4FF0804626614FF4804525610122A3
:1006C4004FF40051404600F0D1FFC7F80C9026616A
:1006D4002561BDE8F88300BF00180140000C01400B
:1006E4000014014070B50446417211F0010129D093
:1006F4004FF4A073013B638131B3F023013BA38129
:1007040000224FF48071924800F0B0FF01224FF4B0
:100714008041904800F0AAFF01224FF400418E4826
:1007240000F0A4FF637A042B00F00481052B00F091
:100734000781012B0BD04FF4274541F210064FF4EB
:10074400807209E0F023D5E74FF4A073D6E74FF4A5
:10075400274541F23806002201212046FFF79AFF7F
:100764004FF4E06202212046FFF794FF3246032152
:100774002046FFF78FFF002204212046FFF78AFF5F
:1007840040F2022208212046FFF784FF00220921BB
:100794002046FFF77FFF00220A212046FFF77AFF59
:1007A400002210212046FFF775FF07221121204661
:1007B400FFF770FF002212212046FFF76BFF002293
:1007C40013212046FFF766FF142000F0DFFD41F2FD
:1007D400905210212046FFF75DFF40F2272211219D
:1007E4002046FFF757FF052000F0D0FD9C22122180
:1007F4002046FFF74FFF052000F0C8FD4FF4C85214
:1008040013212046FFF746FF232229212046FFF724
:1008140041FF0E222B212046FFF73CFF052000F06C
:10082400B5FD072230212046FFF734FF40F207725E
:1008340031212046FFF72EFF062232212046FFF702
:1008440029FF40F2047235212046FFF723FF41F6C9
:10085400047236212046FFF71DFF0422372120466B
:10086400FFF718FF002238212046FFF713FF40F25C
:10087400067239212046FFF70DFF40F201723C2138
:100884002046FFF707FF0F223D212046FFF702FF16
:10089400052000F07BFD002250212046FFF7FAFEE0
:1008A400EF2251212046FFF7F5FE00225221204677
:1008B400FFF7F0FE40F23F1253212046FFF7EAFE15
:1008C4002A4660212046FFF7E5FE012261212046E9
:1008D400FFF7E0FE102290212046FFF7DBFE002206
:1008E40092212046FFF7D6FE4FF4887295212046C8
:1008F400FFF7D0FE002297212046FFF7CBFE40F2FF
:10090400331207212046FFF7C5FE0A2000F03EFD02
:1009140041F23423A3800023E38001224FF4804179
:100924000D4800F0A3FE01224FF48071084800F046
:100934009DFE70BD4FF41C5541F2300600220BE7BA
:100944004FF41C5541F238064FF4807204E700BF9F
:1009540000100140000C0140001401402DE9F04159
:1009640004460E4615469846BDF81870437A13F0AF
:10097400010F30D1324650212046FFF78BFE2A4624
:1009840052212046FFF786FE424651212046FFF7BA
:1009940081FE3A4653212046FFF77CFE3246202151
:1009A4002046FFF777FE2A4621212046FFF772FEF4
:1009B40000224FF400510B4800F058FE0A4B22224B
:1009C400DA60A3F540634FF080421A614FF480422D
:1009D4001A61BDE8F0814346B8461F4616460D46E7
:1009E400C8E700BF001401400018014070B582B090
:1009F40004460D46164600224FF480711A4800F052
:100A040035FE637A13F0010224D04FF4A073013B46
:100A14009BB20AB3F022013A92B20092002231460C
:100A24002046FFF79BFF637A13F0010317D04FF4BE
:100A3400A072921B92B2A3B94FF4A0732946204628
:100A4400FFF704FE01224FF48071074800F00EFE08
:100A540002B070BDF023DAE74FF4A072DBE7F022B6
:100A6400E7E7F023EAE700BF001001402DE9F04F6B
:100A740085B004460D46066A36B1304601F010FAD8
:100A840010B1626A861B955DD4F810E0BEF1000FC8
:100A940000F06E810EF104020EF108019EF803309D
:100AA40003E0013BDBB20832083143B110688542F0
:100AB400F7D308688542F4D80123029301E00023A8
:100AC4000293029B002B00F0538126698EB3F178C8
:100AD400CF0004373744301D06F1080C13E0727858
:100AE40007324FEAD208327802FB08F2D2B201325E
:100AF400D2B25CF8088BA8EB030303FB0222174471
:100B04000139C9B2083099B103689D42E7D3DCF8D2
:100B140000209542E3D872780732D208367806FB73
:100B240002F6F6B20136F6B2EB1A03FB067600E0E3
:100B34000026002E00F01C819EF80100E18A637AF1
:100B440013F0010F0DD0F02291420DD243189342BD
:100B54003ADD5FFA82F8C9B2A8EB01085FFA88F8B7
:100B640004E04FF4A072EFE74FF000080123834044
:100B7400013B039306F10109377800224FF4807199
:100B84007D4800F073FDE269002A73D02169E9B160
:100B94008D78D6F801300398034008D1C1B14B7861
:100BA4000733C3F3C70359F8033003990B40012DEE
:100BB40010D91A420CBF01230023A3B1013DEDB2A9
:100BC4003B464746984617E08046CFE70025E0E7D6
:100BD4000023E5E743EA430342EA420213420CBF1F
:100BE40001230023E9E73B464746984604E0A38AED
:100BF4000133A382013DEDB255B3A18A238B9942FF
:100C04002AD2002FF3D0237A002BF0D1E28ABEB28D
:100C140093199BB2013B9BB200930B462046FFF70E
:100C24009DFEB4F806A001224FF40051534800F091
:100C34001DFD534BC3F80CA0002ED8D0514B4FF0E0
:100C440080421A614FF480421A61013EB6B2F3E762
:100C54004346B8461F460DE04346B8461F4609E0E2
:100C6400002313E0B8F1000F1AD1013FFFB2A38AA9
:100C74000133A382002F75D0A28A238B9A4271D2AA
:100C8400D9F800602369002BEAD05B780733C3F3FB
:100C9400C7039944002EE5D0039B3340E361E1E7A9
:100CA400DDF808A000255346BA461F4624E0A18A71
:100CB400E28A02EB08039BB22A44013B9BB20093F5
:100CC4000B4692B22046FFF749FE0027B4F804B061
:100CD40001224FF40051294800F0C8FC284BC3F806
:100CE4000CB0A3F540634FF080421A614FF4804288
:100CF4001A6176080135EDB2A84531D916F0010F15
:100D040002D0002FE2D0D2E794F808B0BBF1000F74
:100D140024D19FB9B4F806B001224FF4005117480A
:100D240000F0A4FC164BC3F80CB0A3F540634FF0DD
:100D340080421A614FF480421A61DAE7A18AE28A9A
:100D440002EB08039BB22A44013B9BB200930B467F
:100D540092B22046FFF702FE5F46DBE75F46C8E734
:100D6400574682E701224FF48071034800F07EFC6D
:100D7400012005B0BDE8F08F0010014000140140CF
:100D840000180140000C014008B590F82C30002BED
:100D940045D111F0800F1BD001F0E003C02B1AD015
:100DA40001F0F003E02B1ED001F0F803F02B22D069
:100DB40001F0FC03F82B26D001F0FE03FC2B2AD112
:100DC40001F001018162052380F82C30012040E00C
:100DD400FFF74CFE3DE001F01F018162012380F822
:100DE4002C30184635E001F00F018162022380F8AF
:100DF4002C3001202DE001F007018162032380F8EB
:100E04002C30012025E001F003018162042380F8E5
:100E14002C3001201DE07F21FFF728FE19E001F0AE
:100E2400C002802A0FD1826A01F03F0141EA821197
:100E34008162013BDBB280F82C300BB1012008E069
:100E4400FFF714FE05E0002380F82C307F21FFF724
:100E54000DFE08BD2DE9F04F8BB05A4B9A6942F054
:100E640040029A619A6902F040020192019A9A69D9
:100E740042F004029A619A6902F004020292029A10
:100E84009A6942F008029A619A6902F00802039290
:100E9400039A9A6942F020029A619A6902F0200248
:100EA4000492049A9A6942F010029A619B6903F0D1
:100EB40010030593059B444D00224FF6FF7128460D
:100EC40000F0D4FBDFF808B100220421584600F0FA
:100ED400CDFBDFF8009100224FF48441484600F036
:100EE400C5FBDFF8F4A000224FF46841504600F03F
:100EF400BDFB364F01224FF48071384600F0B6FB3B
:100F040000224FF40071384600F0B0FB4FF6FF7337
:100F1400069311230793002408944FF00308CDF897
:100F2400248006A9284600F0B7FA04230693012575
:100F3400079508940226099606A9584600F0ACFACB
:100F44004FF48043069307950894CDF8248006A9AE
:100F5400484600F0A1FA4FF490430693079508948D
:100F6400099606A9504600F097FA4FF420430693D9
:100F740007950894CDF8248006A9504600F08CFA11
:100F84004FF48073069307950894CDF8248006A93E
:100F9400384600F081FA4FF40078CDF818800795B0
:100FA4000894099606A9384600F076FACDF8188018
:100FB40007950894099606A9484600F06DFA0BB007
:100FC400BDE8F08F001002400018014000100140FD
:100FD40000080140000C01400014014010B5064C0B
:100FE4000421204600F048FB012000F0CFF9042141
:100FF400204600F041FB10BD00080140FEE7000060
:1010040008B50E480E4B03604FF48273436000230F
:101014008360C360036143614FF400728261C36102
:101024000362436283620A23C36200F0D3FE00B901
:1010340008BDCA210348FFF7E1FF00BFB00000204C
:10104400003001401C1F000808B50E480E4B036019
:101054004FF48273436000238360C3600361436180
:101064004FF400728261C3610362436283620A23A4
:10107400C36200F0AFFE00B908BDE2210348FFF7E8
:10108400BDFF00BF58000020003C00401C1F0008AA
:1010940000B595B00223069301230B9310230C9300
:1010A40000230E93119306A800F000FB08BB0F2346
:1010B40001930021029103910491059101A800F08C
:1010C400C7FDD0B900F080FE0E4BA3FB00308009B1
:1010D40000F0B6F9042000F0C9F90B4B01221A60A4
:1010E400002211464FF0FF3000F076F915B05DF89C
:1010F40004FB96210548FFF781FFA4210348FFF76D
:101104007DFF00BFD34D6210700042421C1F0008D7
:1011140008B500F017F9FFF7BBFFFFF79BFEFFF7D9
:101124006FFFFFF791FFFFF735FAFFF757FFFEE771
:1011340000B583B0244B9A6942F001029A619A691E
:1011440002F001020092009ADA6942F08052DA61F8
:10115400DB6903F080530193019B032000F02AF91B
:10116400002211466FF00B0000F036F90022114600
:101174006FF00A0000F030F9002211466FF0090008
:1011840000F02AF9002211466FF0040000F024F95F
:10119400002211466FF0030000F01EF900221146F0
:1011A4006FF0010000F018F9002211464FF0FF30F3
:1011B40000F012F9054A536823F0E06343F000732A
:1011C400536003B05DF804FB0010024000000140CE
:1011D40010B586B00368264A934204D0254A934248
:1011E40020D006B010BD244B9A6942F480529A6113
:1011F4009B6903F480530093009BA0230293022372
:101204000393032305931D4C02A9204600F044F9DF
:101214004023029300230393049302A9204600F081
:101224003BF9DEE7144BDA6942F40042DA61DB6928
:1012340003F400430193019B4FF4A0530293022350
:101244000393032305930E4C02A9204600F024F9CE
:101254004FF40063029300230393049302A92046EE
:1012640000F01AF9074A536843F0B8535360B8E7DB
:1012740000300140003C00400010024000080140E2
:1012840000100140000001407047FEE7FEE7FEE762
:10129400FEE770477047704708B500F065F800F046
:1012A400F6F808BD124B1A6842F001021A60596838
:1012B400104A0A405A601A6822F0847222F480327A
:1012C4001A601A6822F480221A605A6822F4FE0214
:1012D4005A601A6822F0A0521A604FF47F029A6092
:1012E4000022DA62044B4FF000629A60704700BF3C
:1012F400001002400000FFF000ED00E010B50446CD
:101304000E4B18784FF47A73B3FBF0F30C4A106861
:10131400B0FBF3F000F094F868B90F2C01D9012068
:101324000AE0002221464FF0FF3000F055F8034B4D
:101334005C60002000E0012010BD00BF040000201C
:101344000000002008B5074A136843F01003136037
:10135400032000F02FF80020FFF7D0FFFFF7E8FE8E
:10136400002008BD00200240034A1168034B1B788B
:101374000B441360704700BF0801002004000020E4
:10138400014B1868704700BF0801002038B50446B7
:10139400FFF7F6FF0546B4F1FF3F02D0044B1B787C
:1013A4001C44FFF7EDFF401BA042FAD338BD00BF39
:1013B40004000020074AD36823F4E0631B041B0CD9
:1013C400000200F4E060184340F0BF6040F40030D5
:1013D400D060704700ED00E030B4174BDB68C3F316
:1013E4000223C3F10704042C28BF04241D1D062D69
:1013F40018D9033B4FF0FF3505FA04F421EA040140
:10140400994005FA03F322EA0303194300280BDB8E
:101414000901C9B200F1604000F5614080F8001391
:1014240030BC70470023E5E700F00F000901C9B2A2
:10143400024B1954F4E700BF00ED00E014ED00E0A6
:101444000138B0F1807F0AD2064B5860064AF02179
:1014540082F823100020986007221A607047012048
:10146400704700BF10E000E000ED00E0042805D064
:10147400054A136823F0040313607047024A136893
:1014840043F004031360704710E000E0704708B5B0
:10149400FFF7FCFF08BD0000F0B482B0002635461B
:1014A400A1E0002C59D0012C00D1CE68FF2B68D8C4
:1014B4008446FF2B68D8AC00DCF800200F27A74037
:1014C40022EA070206FA04F42243CCF800204A6810
:1014D40012F0805F00F086805E4A946944F0010453
:1014E4009461926902F001020192019AAC08A71C6E
:1014F400594A52F8272005F00307BF004FF00F0C9C
:101504000CFA07FC22EA0C0C544A904242D002F531
:10151400806290427FD002F5806290427DD002F5D5
:101524008062904234D0042235E04D4FBC4214D046
:101534000BD94C4FBC4210D007F58037BC420CD0BD
:10154400A7F58017BC42B1D107E0A7F58017BC42CC
:1015540003D007F58037BC42A8D18C687CB1012C3C
:1015640008D042610826A1E7CE6808369EE7CE6817
:101574000C369BE70261082698E7002696E70426C6
:1015840094E700F1040C94E7A5F10804A40093E7A0
:10159400032200E00022BA4042EA0C0202342E4F39
:1015A40047F824204A6812F4803F38D02E4C226831
:1015B4001A4322604A6812F4003F36D02A4C62680B
:1015C4001A4362604A6812F4801F34D0264CA26821
:1015D4001A43A2604A6812F4001F32D0224CE26817
:1015E4001343E36001350F2D31D80122AA400B6863
:1015F40013409A42F6D14C68122CB8D095D8022CDC
:10160400B2D07FF64EAF032CB7D0112C7FF44EAF7F
:10161400CE6804364AE70122BDE70222BBE7124C3A
:10162400226822EA03022260C4E70F4C626822EABD
:1016340003026260C6E70C4CA26822EA0302A260BD
:10164400C8E7094CE26822EA0303E360CAE702B090
:10165400F0BC704700100240000001400008014047
:1016640000002110000031100004014012B90904E7
:101674000161704701617047C3685940C160704798
:1016840082B0084B1B68084AA2FB03235B0A00FBD9
:1016940003F0019000BF019B5A1E0192002BF9D167
:1016A40002B0704700000020D34D621070B582B0C4
:1016B4000446036813F0010F2CD0AB4B5B6803F0B6
:1016C4000C03042B1DD0A84B5B6803F00C03082B00
:1016D40012D0A368B3F5803F41D0002B55D103F15C
:1016E400804303F504331A6822F480321A601A68BE
:1016F40022F480221A6037E09B4B5B6813F4803F2E
:10170400E7D0994B1B6813F4003F03D0A368002B68
:1017140000F01F82236813F0020F76D0924B5B68AF
:1017240013F00C0F5FD0904B5B6803F00C03082B95
:1017340054D06369002B00F08A808C4B01221A601C
:10174400FFF71EFE0546884B1B6813F0020F75D188
:10175400FFF716FE401B0228F5D90320FCE1824A5C
:10176400136843F480331360A36843B3FFF708FEA0
:1017740005467D4B1B6813F4003FCBD1FFF700FEF9
:10178400401B6428F5D90320E6E1B3F5A02F09D066
:10179400754B1A6822F480321A601A6822F4802287
:1017A4001A60E1E703F18043A3F53C331A6842F47D
:1017B40080221A601A6842F480321A60D4E7FFF774
:1017C400DFFD0546684B1B6813F4003FA2D0FFF70A
:1017D400D7FD401B6428F5D90320BDE1624B5B684B
:1017E40013F4803FA5D1604B1B6813F0020F04D0A3
:1017F4006369012B01D00120AEE15B4A136823F039
:10180400F803A16943EAC1031360236813F0080FC6
:1018140032D0E369002B5BD0554B01221A60FFF7ED
:10182400AFFD0546504B5B6A13F0020F21D1FFF761
:10183400A7FD401B0228F5D903208DE14A4A13680D
:1018440023F0F803A16943EAC1031360DDE7474BC2
:1018540000221A60FFF794FD0546434B1B6813F002
:10186400020FD2D0FFF78CFD401B0228F5D90320CC
:1018740072E10120FFF704FF236813F0040F00F066
:101884009780394BDB6913F0805F33D1364BDA69CB
:1018940042F08052DA61DB6903F080530193019BCB
:1018A4000125344B1B6813F4807F25D02369012B59
:1018B40036D0002B4CD103F1804303F504331A6A6C
:1018C40022F001021A621A6A22F004021A622CE05F
:1018D400274B00221A60FFF753FD0546224B5B6A33
:1018E40013F0020FC8D0FFF74BFD401B0228F5D9B7
:1018F400032031E10025D4E71E4A136843F48073C2
:101904001360FFF73DFD06461A4B1B6813F4807FF6
:10191400CCD1FFF735FD801B6428F5D903201BE1EA
:10192400114A136A43F001031362236973B3FFF787
:1019340027FD06460C4B1B6A13F0020F37D1FFF745
:101944001FFD801B41F288339842F3D9032003E141
:10195400052B11D0044B1A6A22F001021A621A6A8A
:1019640022F004021A62E0E7001002400000424242
:101974008004424200700040794B1A6A42F004022B
:101984001A621A6A42F001021A62CEE7FFF7F8FC03
:101994000646734B1B6A13F0020F08D0FFF7F0FCE6
:1019A400801B41F288339842F3D90320D4E0EDB987
:1019B400E36A002B6FD06A4A526812F4803F05D064
:1019C400674A526802F00C02082A15D0022B4BD148
:1019D400634B1B6813F0805F15D0614BDB6A03F027
:1019E400F003626B93420ED00120B5E05C4AD369E8
:1019F40023F08053D361DBE7594AD26A12F4803F63
:101A0400E4D00120A8E0574B00221A60FFF7B8FC8D
:101A14000546534B1B6813F0006F06D0FFF7B0FC6C
:101A2400401B6428F5D9032096E04D4AD36A23F07D
:101A3400F003616B0B43D362D36A23F47063216BAD
:101A44000B43D362474B01221A60FFF799FC05460A
:101A5400434B1B6813F0006F1DD1FFF791FC401B33
:101A64006428F5D9032077E03D4AD36A23F4803310
:101A7400D3623C4B00221A60FFF782FC0546384BC8
:101A84001B6813F0006F06D0FFF77AFC401B642834
:101A9400F5D9032060E0236A002B5CD0304A5268F9
:101AA40002F00C02082A59D0022B11D02E4B00222E
:101AB4001A60FFF765FC0446294B1B6813F0007F8E
:101AC40045D0FFF75DFC001B0228F5D9032043E055
:101AD400254B00221A60FFF753FC0546204B1B6878
:101AE40013F0007F06D0FFF74BFC401B0228F5D90A
:101AF400032031E0636AB3F5803F1AD018494B687C
:101B040023F47413626AA06A024313434B60164BB6
:101B140001221A60FFF734FC0446114B1B6813F0D2
:101B2400007F12D1FFF72CFC001B0228F5D90320FB
:101B340012E00B4AD36A61680B43D362D36A23F081
:101B44000F03E1680B43D362D8E7002004E00020D0
:101B540002E0012000E0002002B070BD0120FBE79C
:101B64000010024068004242600042422DE9F04FFA
:101B740089B0334C04AD94E80F0007C52B806D4643
:101B8400103494E80F0085E80F002E4B5B6803F0D7
:101B94000C02082A52D1C3F3834208A90A4412F85A
:101BA400104C13F4803F43D02649CB6A03F00F0353
:101BB40008AA134413F8202CCB6A13F4803F31D0C5
:101BC400CB6AC3F303130133C86AC0F303200230A2
:101BD400A0FB046770017901801B61EB07018B4650
:101BE4004FEA811949EA90694FEA8018B8EB000A74
:101BF40069EB0B0B4FEACB0545EA5A754FEACA0C61
:101C04001CEB060045EB07014D0245EAD0554602A0
:101C140030462946A3FB0223FEF702FB0D2C0AD112
:101C2400400808E0084800FB04F0B0FBF2F0F5E7D8
:101C3400064800FB04F009B0BDE8F08F0248FAE75B
:101C4400FC1E00080010024000127A0000093D004A
:101C5400594B1B6803F007038B420CD2564A136896
:101C640023F007030B431360136803F007038B424D
:101C740001D00120704770B5036813F0020F06D03D
:101C84004E4A536823F0F0038468234353600C46A0
:101C94000546036813F0010F52D04368012B23D08B
:101CA400022B28D0454A126812F0020F00F08280FD
:101CB40042494A6822F0030213434B60FFF760FB7A
:101CC40006466B68012B1DD0022B2AD03B4B5B6868
:101CD40013F00C0F34D0FFF753FB801B41F2883311
:101CE4009842F3D9032064E0344A126812F4003FA6
:101CF400DED101205DE0314A126812F0007FD7D1B5
:101D0400012056E02D4B5B6803F00C03042B17D025
:101D1400FFF736FB801B41F288339842F2D9032047
:101D240047E0264B5B6803F00C03082B08D0FFF751
:101D340027FB801B41F288339842F2D9032038E014
:101D44001D4B1B6803F00703A3420CD91A4A1368FE
:101D540023F0070323431360136803F00703A3422C
:101D640001D0012025E02B6813F0040F06D0134A9C
:101D7400536823F4E063E9680B4353602B6813F062
:101D8400080F07D00D4A536823F46053296943EAC6
:101D9400C1035360FFF7EAFE084B5B68C3F3031308
:101DA400074AD35CD840074B18600020FFF7A6FA17
:101DB400002070BD0120FCE700200240001002401A
:101DC400E41E000800000020014B1868704700BFA3
:101DD4000000002000283CD010B504460023836294
:101DE40090F85130002B31D0022384F8513022680E
:101DF400136823F0400313606368A2681343E26826
:101E040013432269134362691343A26902F4007203
:101E14001343E2691343226A1343A16A22680B4302
:101E24001360638B03F00403616A22680B435360FD
:101E34002368E26A1A612268D36923F40063D361D8
:101E440000206065012384F8513010BDFFF7C0F90C
:101E5400CAE701207047000070B500250C4E0D4CF8
:101E6400A41BA410A54209D100F028F800250A4EAD
:101E74000A4CA41BA410A54205D170BD56F8253008
:101E840098470135EEE756F8253098470135F2E7D3
:101E9400501F0008501F0008501F0008581F00085A
:101EA400C9B2034610F8012B1AB18A42F9D1184677
:101EB4007047002918BF0023F9E70000F8B500BFF8
:101EC400F8BC08BC9E467047F8B500BFF8BC08BC17
:041ED4009E4670476F
:101ED80000000000000000008D0D00080000000058
:101EE80000000000010203040607080900000000C2
:101EF80001020304000004050607080900000000A9
:101F0800000D00000102030405060708090A0B0C6E
:101F18000D0E0F102F6D6E742F64732F7372632F55
:101F28006D6B735F7466742F4F63746F5363726560
:101F3800656E2F5372632F6D61696E2E630000000A
:081F48000CE3FF7F0100000023
:081F500009020008C1050008A8
:041F5800E501000897
:0C1F5C0000A24A04010000001000000078
:0400000508000529C1
:00000001FF
