:020000040800F2
:100000000000012059050008A11A0008AD1A0008D7
:10001000B31A0008B91A0008BF1A0008000000004F
:1000200000000000000000000000000091FE000839
:10003000C51A00080000000041000108D11A00089C
:10004000A1050008A1050008A1050008A1050008F8
:10005000A1050008A1050008A1050008A1050008E8
:10006000A1050008A1050008A1050008A1050008D8
:10007000A1050008A1050008A1050008A1050008C8
:10008000A1050008A1050008A1050008A1050008B8
:10009000A1050008A1050008A1050008A1050008A8
:1000A000A1050008DD1A0008A1050008A105000847
:1000B000A1050008A1050008A1050008A105000888
:1000C000A1050008A1050008A1050008A105000878
:1000D000A1050008A1050008A1050008A105000868
:1000E000A1050008A1050008A10500080000000006
:1000F0000000000000000000000000000000000000
:100100000000000000000000A1050008A105000893
:10011000A1050008A1050008A1050008A105000827
:10012000A1050008A1050008A1050008A105000817
:10013000A1050008A1050008A1050008A105000807
:10014000A1050008A1050008A1050008A1050008F7
:10015000000000000000000000000000000000009F
:10016000000000000000000000000000000000008F
:10017000000000000000000000000000000000007F
:10018000000000000000000000000000000000006F
:10019000000000000000000000000000000000005F
:1001A000000000000000000000000000000000004F
:1001B000000000000000000000000000000000003F
:1001C000000000000000000000000000000000002F
:1001D000000000000000000000000000000000001F
:0401E0005FF8E0F1F3
:1001F00010B5054C237833B9044B13B10448AFF361
:1002000000800123237010BD340100200000000095
:10021000880D010808B5034B1BB103490348AFF330
:10022000008008BD0000000038010020880D010892
:1002300053B94AB9002908BF00281CBF4FF0FF314D
:100240004FF0FF3000F074B9ADF1080C6DE904CE49
:1002500000F006F8DDF804E0DDE9022304B07047A1
:100260002DE9F0478C460446089E002B4BD18A426C
:10027000154667D9B2FA82F24AB1C2F1200701FAF3
:1002800002F320FA07F7954047EA030C94404FEA3F
:10029000154EBCFBFEF71FFA85F80EFB17C307FBD4
:1002A00008F9210C41EA0343994509D9EB1807F1F4
:1002B000FF3180F01C81994540F21981023F2B44A7
:1002C000A3EB0903B3FBFEF00EFB103300FB08F1B8
:1002D000A4B244EA0344A14209D92C1900F1FF3326
:1002E00080F00781A14240F2048102382C4440EAA8
:1002F00007400027641A1EB10023D440C6E900431A
:100300003946BDE8F0878B4209D9002E00F0EC8019
:100310000027C6E9000138463946BDE8F087B3FA40
:1003200083F7002F48D18B4202D3824200F2FB8038
:10033000841A61EB030301209C46002EE0D0C6E93D
:10034000004CDDE702B9FFDEB2FA82F2002A40F08B
:100350008F800127491B4FEA15481FFA85F9B1FB29
:10036000F8FE08FB1E1109FB0EF04FEA144C4CEA94
:100370000143984207D9EB180EF1FF3102D298429F
:1003800000F2CD808E461B1AB3FBF8F008FB103349
:1003900009FB00F9A4B244EA0344A14507D92C198A
:1003A00000F1FF3302D2A14500F2B6801846A4EB5B
:1003B000090440EA0E409EE7C7F12005BB4022FA3F
:1003C00005FC4CEA030C21FA05F44FEA1C4EB4FB81
:1003D000FEF91FFA8CF80EFB194420FA05F3B94018
:1003E00009FB08FA19430B0C43EA0444A24502FA3C
:1003F00007F200FA07F30BD91CEB040409F1FF30F4
:1004000080F08880A24540F28580A9F10209644409
:10041000A4EB0A04B4FBFEF00EFB104400FB08FA48
:1004200089B241EA0444A24508D91CEB040400F156
:10043000FF316BD2A24569D90238644440EA0940D1
:10044000A0FB0289A4EB0A044C454146CE4654D396
:1004500051D0002E69D05A1A64EB0E0404FA05F547
:1004600022FA07F3FC401D43C6E90054002747E782
:100470009540C2F1200321FA03F04FEA1548B0FB82
:10048000F8F71FFA85F908FB170024FA03F39140E7
:1004900007FB09FC0B43190C41EA00418C4504FAA7
:1004A00002F407D9691807F1FF3031D28C452FD9F2
:1004B000023F2944A1EB0C01B1FBF8F008FB101C32
:1004C00000FB09FE99B241EA0C418E4507D9691833
:1004D00000F1FF3318D28E4516D902382944A1EB1A
:1004E0000E0140EA07473AE73746304608E70F462D
:1004F000E6E61846FBE64345ABD2B8EB020169EBF2
:100500000C0201389646A4E71846E8E7084695E746
:100510000746CFE781467BE702382C4447E7AEF138
:10052000020E2B442FE7384607E73746E8E600BFC0
:10053000704700BF10F8012B11F8013B012A28BFBA
:100540009A42F7D0D01A7047034613F8012B002ABD
:10055000FBD1181A01387047002103E00B4B5B58A0
:10056000435004310A480B4B42189A42F6D30A4AC8
:1005700002E0002342F8043B084B9A42F9D30DF005
:10058000CDFF10F087FA00F00BFF7047EC55010823
:10059000000000203401002034010020A45000207D
:1005A000FEE7000080B483B000AF7860044A7B6847
:1005B0001A607B6818460C37BD4680BC704700BF88
:1005C000D455010880B483B000AF78607B68002206
:1005D0001A607B6818460C37BD4680BC7047000027
:1005E00080B582B000AF78607B681846FFF7DAFF0D
:1005F000064A7B681A607B6810331846FFF7E2FFF3
:100600007B6818460837BD4680BD00BFD40D010881
:1006100080B586B002AF0021204800F0EBFA00223E
:100620004FF408411D4800F0C5FB4FF4A0600FF0E7
:1006300012FBB8600023FB60FB68B3F5207F15DA7E
:10064000FB68B3F5A07F06DAFB685B00BA68134469
:1006500000221A8006E0FB685B00BA6813444FF67C
:10066000FF721A80FB680133FB60E5E74FF48C737F
:100670007B60D7233B607B6803F11F013B6813332A
:10068000BA68019200930B463A687968034800F013
:100690001FFE00BF1037BD4680BD00BF50010020C7
:1006A00080B586B002AFF860B9607A603B60BB6924
:1006B00001933B6800937B68BA68F968044800F0CE
:1006C00007FE04F0FFFE00BF1037BD4680BD00BF2F
:1006D0005001002080B582B000AF786039607B683F
:1006E000012B07D13B684FF6FF72934202D10348BA
:1006F000FFF776FF00BF0837BD4680BD50010020E0
:1007000080B500AF4FF6FF710120FFF7E3FF80BD1A
:1007100080B483B000AF78607B681B68002B03D087
:100720007B681B681B7800E0002318460C37BD4629
:1007300080BC704780B483B000AF78607B681B6872
:10074000002B04D07B681B6801331B7800E000237A
:1007500018460C37BD4680BC704780B483B000AFEC
:1007600078607B681B68002B04D07B681B680233B1
:100770001B7800E0002318460C37BD4680BC70474C
:1007800080B483B000AF78607B681B68002B04D016
:100790007B681B6803331B7800E0002318460C3786
:1007A000BD4680BC704780B586B000AF78603960C8
:1007B0007B681B68002B01D1002325E07B681B6848
:1007C00004337B617B6904333B617868FFF7D8FFB2
:1007D0000346FB73FB7B002B15D07B691B683A68D3
:1007E0009A4206D33B691B683A689A4201D80123B2
:1007F0000AE0FB7B013BFB737B6908337B613B6950
:1008000008333B61E6E7002318461837BD4680BD34
:1008100080B582B000AF78607868FFF78BFF034641
:100820000733002B00DA0733DB10DBB2184608373A
:10083000BD4680BD90B583B000AF78607868FFF7A3
:10084000E7FF03461C467868FFF762FF034603FB99
:1008500004F3DBB20133DBB218460C37BD4690BD62
:1008600090B587B000AF786039607B681B68002B5B
:1008700001D100234BE07B681C687868FFF780FF9C
:100880000346DB00043323447B617B681B6804332D
:100890003B613B690433FB607868FFF771FF0346F7
:1008A000FB72FB7A002B31D03B691B683A689A4295
:1008B00012D3FB681B683A689A420DD87868FFF734
:1008C000B9FF034619463B691B683A68D31A03FB14
:1008D00001F37A6913441AE07868FFF7ABFF034627
:1008E0001946FB681A683B691B68D31A013303FB7E
:1008F00001F37A6913447B61FB7A013BFB723B692C
:1009000008333B61FB680833FB60CAE700231846E5
:100910001C37BD4690BD80B483B000AF78607B6863
:100920005B7A03F00103002B01D0F02301E04FF4C8
:10093000A07318460C37BD4680BC704780B483B0A6
:1009400000AF78607B685B7A03F00103002B02D074
:100950004FF4A07300E0F02318460C37BD4680BC6E
:100960007047000080B588B000AF78600B46FB7020
:1009700000224FF400513B480EF0E6F801224FF4FC
:10098000004138480EF0E0F801224FF4804136482B
:100990000EF0DAF800224FF4807134480EF0D4F8EB
:1009A00000224FF4804130480EF0CEF8304AFB78F8
:1009B000D36001224FF480412B480EF0C5F84FF66A
:1009C000FF73FB6000233B6100237B610323BB615A
:1009D00007F10C03194626480DF058FF01224FF489
:1009E000005120480EF0B0F800224FF400411D489D
:1009F0000EF0AAF81E4B9B68FB8301224FF40041C6
:100A000018480EF0A1F80121786800F0E5F80022FE
:100A10004FF4004113480EF097F8154B9B68FB8389
:100A200001224FF400410F480EF08EF801224FF4DE
:100A300080710E480EF088F84FF6FF73FB600123BB
:100A40003B6100237B610323BB6107F10C03194663
:100A500007480DF01BFFFB8BDBB218462037BD4665
:100A600080BD00BF00140140000C01400010014097
:100A70000018014080B582B000AF78600B46FB7073
:100A800000224FF4005109480EF05EF8084AFB7846
:100A9000D360084B4FF080421A61064B4FF48042FE
:100AA0001A6100BF0837BD4680BD00BF0014014079
:100AB00000180140000C014080B582B000AF7860A2
:100AC0000B467B8001224FF4005109480EF03CF8A0
:100AD000084A7B88D360084B4FF080421A61064B6E
:100AE0004FF480421A6100BF0837BD4680BD00BF89
:100AF0000014014000180140000C014080B582B094
:100B000000AF78600B467B8013463B8001224FF498
:100B100000510C480EF018F80B4A7B88D3603B88D4
:100B2000002B0BD0094B4FF080421A61074B4FF45A
:100B300080421A613B88013B3B80F0E700BF0837E9
:100B4000BD4680BD0014014000180140000C01406A
:100B500080B584B000AFF860084611461A460346D7
:100B60007B810B463B811346FB80FB88002B09D021
:100B70003A897B891946F868FFF7C0FFFB88013B7B
:100B8000FB80F2E700BF1037BD4680BD80B582B064
:100B900000AF78600B46FB70FB789BB21946786813
:100BA000FFF78AFF00BF0837BD4680BD80B582B021
:100BB00000AF78600B46FB701346BB70FB7819469C
:100BC0007868FFF757FFBB7819467868FFF7DEFFB4
:100BD00000BF0837BD4680BD80B582B000AF7860E9
:100BE00039603B6818460DF009FD00BF0837BD4667
:100BF00080BD000080B584B000AF78600B46FB700C
:100C0000DC217868FFF7AEFE0346FB73FB7B522BBB
:100C100067D101224FF4804134480DF095FF012245
:100C20004FF4004132480DF08FFF00224FF48071E5
:100C300030480DF089FF01217868FFF71BFF9620EF
:100C40000DF0DCFC11217868FFF714FF4FF4FA7007
:100C50000DF0D4FC55223A217868FFF7A7FF6022F7
:100C600036217868FFF7A2FF2A217868FFF702FF94
:100C700000217868FFF78AFF00217868FFF786FF78
:100C800001217868FFF782FF3F217868FFF77EFF38
:100C90002B217868FFF7EEFE00217868FFF776FFDA
:100CA00000217868FFF772FF00217868FFF76EFF78
:100CB000EF217868FFF76AFF13217868FFF7DAFE03
:100CC00029217868FFF7D6FE01224FF48071094888
:100CD0000DF03AFF01224FF4804105480DF034FF3A
:100CE00000E000BF1037BD4680BD00BF000C0140D2
:100CF000001401400010014080B586B000AFF860DC
:100D0000084611461A4603467B810B463B81134633
:100D1000FB807B89FB82FB88BB823B897B823B8C8F
:100D20003B822B21F868FFF7A5FE7B8A1B0A9BB24A
:100D30001946F868FFF7C0FE7B8ADBB29BB2194602
:100D4000F868FFF7B9FE3B8A1B0A9BB21946F868A0
:100D5000FFF7B2FE3B8ADBB29BB21946F868FFF799
:100D6000ABFE2A21F868FFF785FEFB8A1B0A9BB2BF
:100D70001946F868FFF7A0FEFB8ADBB29BB2194662
:100D8000F868FFF799FEBB8A1B0A9BB21946F86800
:100D9000FFF792FEBB8ADBB29BB21946F868FFF7F9
:100DA0008BFE2C21F868FFF765FE00BF1837BD46A3
:100DB00080BD000090B585B002AF78600B467B80A7
:100DC00013463B8000224FF4807118480DF0BCFEA2
:100DD0007868FFF7A0FD0346013B9CB27868FFF7F7
:100DE000ADFD0346013B9BB23988009323460022A8
:100DF0007868FFF781FF7868FFF78DFD03461A4694
:100E00003B88D31A9CB27868FFF798FD034679882F
:100E100022467868FFF79CFE01224FF48071034858
:100E20000DF092FE00BF0C37BD4690BD0010014092
:100E300080B582B000AF78600B46FB707B6893F89A
:100E40002C30002B60D197F90330002B06DBFB78A8
:100E50001946786800F08AF8034683E0FB7803F0CF
:100E6000E003C02B0AD1FB7803F01F027B689A6273
:100E70007B68012283F82C20012373E0FB7803F0C8
:100E8000F003E02B0AD1FB7803F00F027B689A6233
:100E90007B68022283F82C20012363E0FB7803F0B7
:100EA000F803F02B0AD1FB7803F007027B689A6203
:100EB0007B68032283F82C20012353E0FB7803F0A6
:100EC000FC03F82B0AD1FB7803F003027B689A62DB
:100ED0007B68042283F82C20012343E0FB7803F095
:100EE000FE03FC2B0AD1FB7803F001027B689A62B7
:100EF0007B68052283F82C20012333E07F2178686A
:100F000000F034F803462DE0FB7803F0C003802B9B
:100F10001FD17B689B6A9A01FB7803F03F031A4359
:100F20007B689A627B6893F82C30013BDAB27B686D
:100F300083F82C207B6893F82C30002B07D17B683A
:100F40009B6A1946786800F011F803460AE001230D
:100F500008E07B68002283F82C207F21786800F06D
:100F600005F8034618460837BD4680BD90B58DB0DC
:100F700002AF786039607B681B6A002B13D07B68F6
:100F80001B6A3A68114618460FF0C6FE78617B6905
:100F9000002B08D07B685B6A7A697968096A521A03
:100FA00013441B783B607B68103339681846FFF7A1
:100FB000FAFB034683F00103DBB2002B0AD17B6806
:100FC000103339681846FFF74BFC0346BB60BB681B
:100FD000002B01D1012300E00023002B01D00123CD
:100FE0006FE17B6810331846FFF7A4FB034687F8D0
:100FF00027307B68DC8A7868FFF7A0FC03469C42B8
:101000002CBF01230023DBB2002B03D0002387F881
:1010100027301BE07B68DB8A1A4697F82730D41804
:101020007868FFF78BFC03469C42CCBF012300236A
:10103000DBB2002B0AD07868FFF780FC0346DAB2F7
:101040007B68DB8ADBB2D31A87F827307B681033E2
:101050001846FFF76FFB03461A4601239340013BF6
:101060003B61BB685A1CBA601B7887F826300022A7
:101070004FF4807195480DF067FD7B68DB69002BAC
:1010800000F082807B6810331846FFF766FB03464A
:1010900087F82530BB681B683A6913403B623B6A9E
:1010A000002B0BD1BC687B6810331846FFF7B0FBF0
:1010B000034623441B683A6913403B6297F8253086
:1010C000012B09D97B68DA693B6A1340002B0CBFFE
:1010D00001230023DBB20FE03B6A5A003B6A1A434C
:1010E0007B68D9697B68DB695B000B431340002B8D
:1010F0000CBF01230023DBB2FB73FB7B002B04D06E
:1011000097F82530013B87F8253097F82530002BDC
:101110003AD07B689A8A7B681B8B9A4234D297F8C4
:101120002730002B24D07B681B7A83F00103DBB2CD
:10113000002B1DD07B68998A7B68D88A7B689C8A43
:101140007B68DA8A97F827309BB213449BB2013B45
:101150009BB20093234602467868FFF7CDFD7B687B
:10116000DB8897F8272092B219467868FFF7C6FC0B
:101170007B689B8A01339AB27B689A8297F8253004
:10118000013B87F82530C0E797F82630002B00F0A8
:1011900091807B689A8A7B681B8B9A4280F08A8058
:1011A000BB681B68FB617B6810331846FFF730FB98
:1011B00003461A46BB681344BB60FB69002B04D08E
:1011C000FA693B691A407B68DA6197F82730002B8F
:1011D00064D00123FB760023BB76BA7E97F82730D4
:1011E0009A425BD2FB6903F00103002B24D0FB7E03
:1011F000002B1AD07B68998A7B68DA8ABB7E9BB207
:10120000134498B27B689C8A7B68DA8A97F8273007
:101210009BB213449BB2013B9BB200932346024610
:101220007868FFF769FD0023FB767B689B88194689
:101230007868FFF741FC2AE07B681B7A002B02D01C
:101240000123FB7623E0FB7E002B1AD07B68998A72
:101250007B68DA8ABB7E9BB2134498B27B689C8A17
:101260007B68DA8A97F827309BB213449BB2013B24
:101270009BB20093234602467868FFF73DFD0023AA
:10128000FB767B68DB8819467868FFF715FCFB69FD
:101290005B08FB61BB7E0133BB769EE797F8263087
:1012A000013B87F826307B689B8A01339AB27B68C2
:1012B0009A8269E701224FF4807104480DF044FCE2
:1012C000012318462C37BD4690BD00BF00100140D9
:1012D00080B588B002AFF860B9607A603B600022E8
:1012E0004FF480711B480DF02FFCBB6899B27B68EE
:1012F0009AB23B6898B23B6A9BB200930346F86887
:10130000FFF7FAFC3A68BB68D31A0133396A7A6886
:101310008A1A013202FB03F33B6100237B617A6985
:101320003B699A420CDA7B695B007A6A13441B883A
:101330001946F868FFF7C0FB7B6901337B61EEE774
:1013400001224FF4807103480DF0FEFB00BF1837F7
:10135000BD4680BD0010014080B500AF044905487E
:101360000EF006FC03461A46034B1A7000BF80BD00
:1013700034480020040000203848002080B500AF29
:10138000042106480DF0F8FB01200EF045FC042175
:1013900002480DF0F1FB00BF80BD00BF0008014016
:1013A000B0B586B000AF0DF0F7F800F01DF800F012
:1013B000E7F800F06FF800F0A7F8094B3C1D1D4658
:1013C0000FCD0FC42B6823603B1D002118460EF083
:1013D000FCFB0246034B1A600EF0F0FBFEE700BF79
:1013E000E40D01089C4C002080B594B000AF0223AE
:1013F000BB610123FB6210233B630023FB610223DB
:10140000BB630023FB634FF4E0133B6400237B6466
:1014100007F1180318460DF0C1FB0346002B03D05B
:10142000C821194800F00AFA0F237B600223BB6031
:101430000023FB6000233B6100237B613B1D0121F6
:1014400018460DF0A5FE0346002B03D0D6210E480A
:1014500000F0F4F90EF074F802460C4BA3FB0223E3
:101460009B0918460DF0E9F904200DF0F3F9084B3B
:1014700001221A6000220F214FF0FF300DF0B3F966
:1014800000BF5037BD4680BDF80D0108D34D621036
:101490007000424280B500AF184B194A1A60174BD2
:1014A0004FF482725A60154B00229A60134B00224F
:1014B000DA60124B00221A61104B00225A610F4B66
:1014C0004FF400729A610D4B0022DA610B4B00223F
:1014D0001A620A4B00225A62084B00229A62074B9A
:1014E0000A22DA6205480EF097F80346002B03D073
:1014F000FC21044800F0A2F900BF80BDF84C002098
:1015000000300140F80D010880B500AF194B1A4AB0
:101510001A60184B4FF482725A60164B00229A6080
:10152000144B0022DA60134B00221A61114B002287
:101530005A61104B4FF400729A610E4B0022DA612F
:101540000C4B00221A620B4B00225A62094B0022FC
:101550009A62084B0A22DA6206480EF05DF80346EA
:10156000002B04D04FF48A71044800F067F900BFE3
:1015700080BD00BFA04C0020003C0040F80D0108D9
:1015800080B58AB000AF734B9B69724A43F0400349
:101590009361704B9B6903F040037B617B696D4BEA
:1015A0009B696C4A43F0040393616A4B9B6903F0A7
:1015B00004033B613B69674B9B69664A43F0080340
:1015C0009361644B9B6903F00803FB60FB68614B0C
:1015D0009B69604A43F0200393615E4B9B6903F073
:1015E0002003BB60BB685B4B9B695A4A43F0100306
:1015F0009361584B9B6903F010037B607B6800226A
:101600004FF6FF7154480DF09FFA00220421534811
:101610000DF09AFA01224FF4804151480DF094FAEE
:1016200000224FF4D0414F480DF08EFA01224FF4C2
:1016300000414C480DF088FA01224FF480714A486D
:101640000DF082FA00224FF4007147480DF07CFA49
:1016500000224FF4007142480DF076FA4FF6FF7306
:10166000BB610123FB6100233B6203237B6207F123
:101670001803194638480DF009F90423BB6101230A
:10168000FB6100233B6202237B6207F118031946CA
:1016900032480DF0FBF84FF48043BB610123FB613E
:1016A00000233B6203237B6207F1180319462C4891
:1016B0000DF0ECF84FF49043BB610123FB61002374
:1016C0003B6202237B6207F11803194625480DF09F
:1016D000DDF84FF42043BB610123FB6100233B6233
:1016E00003237B6207F1180319461E480DF0CEF85C
:1016F0004FF48073BB610123FB6100233B62032332
:101700007B6207F11803194617480DF0BFF84FF434
:101710000073BB610123FB6100233B6202237B62F8
:1017200007F11803194610480DF0B0F84FF4007394
:10173000BB610123FB6100233B6202237B6207F153
:101740001803194606480DF0A1F800BF2837BD461A
:1017500080BD00BF00100240001801400008014099
:10176000000C0140001401400010014080B58EB013
:1017700002AF7860FFF7F0FD4FF47A700EF04CFA8C
:10178000FEF746FF01F096FDFFF7F8FD07F10C03A9
:10179000184609F09DF91E4BFB6007F10C03184633
:1017A00009F0B2F902F024FC0346002118460BF0C0
:1017B0002BFE78621749786A0BF01CFF0023009318
:1017C000002300220021786A02F044F90023FB6222
:1017D0000023BB62FB6A0133FB62BB6A0133BB625D
:1017E000012009F099FA01200EF016FAFB6A052B88
:1017F00003D10AF007FC0023FB62BB6A41F2883286
:101800009342E7D1FFF7BAFD0023BB62E2E700BFD6
:10181000A1060008240E010880B582B000AF7860F0
:101820007B681B68044A934201D10CF0CBFE00BFD9
:101830000837BD4680BD00BF002C014080B483B096
:1018400000AF78603960FEE780B584B000AF2B4B05
:101850009B692A4A43F001039361284B9B6903F07B
:101860000103BB60BB68254BDB69244A43F080530E
:10187000D361224BDB6903F080537B607B680320DC
:101880000CF0A6FF002200216FF00B000CF0ABFF64
:10189000002200216FF00A000CF0A5FF00220021B9
:1018A0006FF009000CF09FFF002200216FF0040090
:1018B0000CF099FF002200216FF003000CF093FF61
:1018C00000220F216FF001000CF08DFF00220F218C
:1018D0004FF0FF300CF087FF094B5B68FB60FB6843
:1018E00023F0E063FB60FB6843F00073FB60044A95
:1018F000FB68536000BF1037BD4680BD001002403A
:101900000000014080B58AB000AF78607B681B683A
:10191000324A934224D1324B9B69314A43F480537B
:1019200093612F4B9B6903F480533B613B69A02378
:101930007B610223BB6103233B6207F11403194659
:1019400028480CF0A3FF40237B610023BB610023E8
:10195000FB6107F11403194622480CF097FF38E0A9
:101960007B681B68204A934233D11D4BDB691C4ABC
:1019700043F40043D3611A4BDB6903F40043FB607B
:10198000FB684FF4A0537B610223BB6103233B62DE
:1019900007F11403194615480CF078FF4FF4006363
:1019A0007B610023BB610023FB6107F1140319462F
:1019B0000E480CF06BFF0E4B5B687B627B6A43F05A
:1019C000E0637B627B6A43F080537B62084A7B6AF8
:1019D000536000BF2837BD4680BD00BF00300140C6
:1019E0000010024000080140003C0040001001408F
:1019F0000000014080B58CB000AF78600023FB622E
:101A00000023BB620022796819200CF0ECFE19203B
:101A10000CF005FF1E4B9B691D4A43F40063936164
:101A20001B4B9B6903F40063FB60FB6807F110022A
:101A300007F11403114618460DF0A0FD0DF08AFDC4
:101A4000F862FB6A134AA2FB03239B0C013BBB62B7
:101A5000114B124A1A60104B40F2E732DA600E4A1C
:101A6000BB6A53600C4B00221A610B4B00229A6038
:101A700009480DF036FE0346002B04D106480DF050
:101A800064FE034600E0012318463037BD4680BDA2
:101A90000010024083DE1B43504D0020002C01400B
:101AA00080B400AF00BFBD4680BC704780B400AFBB
:101AB000FEE780B400AFFEE780B400AFFEE780B47D
:101AC00000AFFEE780B400AF00BFBD4680BC7047EA
:101AD00080B500AF0EF0B4F800BF80BD80B500AF98
:101AE00002480DF04CFE00BF80BD00BF504D0020ED
:101AF00080B483B000AF0346FB71054B01221A701E
:101B0000034B1B78DBB218460C37BD4680BC7047D0
:101B10000000002080B483B000AF0346FB71054B8A
:101B200001221A70034B1B78DBB218460C37BD46F6
:101B300080BC70470000002080B485B000AFB96061
:101B40007A603B600346FB73002318461437BD469A
:101B500080BC704780B485B000AFB9607A603B60EC
:101B60000346FB73002318461437BD4680BC7047FC
:101B700080B485B000AF03463A60FB710B46BB7181
:101B80000123FB73FB7B18461437BD4680BC7047AE
:101B900080B485B000AFB88039801346FB707B7984
:101BA000C3F3C403DBB29BB2FA7892B202FB03F335
:101BB0009AB27B78C3F3C403DBB29BB2F978C1F16C
:101BC000FF0189B201FB03F39BB213449BB21B0AD2
:101BD0009BB203F01F03DAB27B7B62F3C7037B7314
:101BE000BB88C3F34513DBB29BB2FA7892B202FB17
:101BF00003F39AB23B88C3F34513DBB29BB2F97887
:101C0000C1F1FF0189B201FB03F39BB213449BB204
:101C10001B0A9BB203F03F03DAB2BB8962F34A139B
:101C2000BB813B79C3F30403DBB29BB2FA7892B277
:101C300002FB03F39AB23B78C3F30403DBB29BB21B
:101C4000F978C1F1FF0189B201FB03F39BB21344A0
:101C50009BB21B0A9BB203F01F03DAB23B7B62F319
:101C600004033B73BB8918461437BD4680BC7047DC
:101C700080B584B000AF786039607B68002B2CD0D1
:101C80003B68DB6A002B0AD0386802F077FB03461A
:101C9000002B04D03B68DB6A184600F092F83B68E2
:101CA0007A68DA627B68184609F030FEF860FB68F3
:101CB000002B00D1FEE7FB68002B10D0FB683A68D0
:101CC0001A607B68184609F0E2FE0246FB68934200
:101CD00006D1786800F075F802E000BF00E000BFB0
:101CE0001037BD4680BD80B584B000AF78607B689A
:101CF000DB6ABB60BB68002B59D0BB6893F85830D7
:101D000003F00103DBB2002B53D10021B86800F0CF
:101D10002BF9BB68184609F0BAFEF86043E0FB688F
:101D20001B687A689A4238D1BB68DB68FA689A42C5
:101D300041D0BB68DB68002B0FD0BB68DB681B6839
:101D40009B69BA68D268106800220F219847BB6867
:101D5000DB681B68184601F0D9FCBB68FA68DA60DA
:101D6000BB68DB68002B28D0BB68DB681B689B69FD
:101D7000BA68D268106800220E219847BB689B6938
:101D8000002B03D0BB689B69B8689847BB68DB68C9
:101D90001B68184601F0BAFC0FE0BB68F9681846EA
:101DA00009F099FEF860FB68002BB8D106E000BF8F
:101DB00004E000BF02E000BF00E000BF1037BD46F6
:101DC00080BD80B584B000AF78607B6893F85830F0
:101DD00003F00103DBB2002B4DD17B68DB68002BE5
:101DE0000FD07B68DB681B689B697A68D2681068D3
:101DF00000220F2198477B68DB681B68184601F0BA
:101E000085FC7B68DB68002B05D17B68184609F0F0
:101E10003EFEF86007E07A687B68DB68194610468A
:101E200009F059FEF860FB68002B04D17B68184666
:101E300009F02DFEF8607B68FA68DA607B68DB6881
:101E4000002B19D07B68DB681B689B697A68D268B5
:101E5000106800220E2198477B68DB681B681846D3
:101E600001F054FC7B689B69002B05D07B689B6963
:101E70007868984700E000BF1037BD4680BD80B548
:101E800084B000AF78607B6893F8583003F00103AA
:101E9000DBB2002B4DD17B68DB68002B0FD07B6859
:101EA000DB681B689B697A68D268106800220F2182
:101EB00098477B68DB681B68184601F027FC7B6845
:101EC000DB68002B05D17B68184609F0F2FDF8604D
:101ED00007E07A687B68DB681946104609F014FE53
:101EE000F860FB68002B04D17B68184609F0E1FD1F
:101EF000F8607B68FA68DA607B68DB68002B19D0D1
:101F00007B68DB681B689B697A68D268106800226E
:101F10000E2198477B68DB681B68184601F0F6FBCA
:101F20007B689B69002B05D07B689B697868984724
:101F300000E000BF1037BD4680BD80B584B000AF63
:101F400078603960786800F07BF8F860FB68002BF7
:101F500006D0FB689B693A461021F868984700E074
:101F600000BF1037BD4680BD80B584B000AF78603B
:101F70000B46FB70FB78FB737B6893F85830C3F318
:101F80004003DBB21A46FB7B93421BD0FB7B03F082
:101F90000103D9B27A6892F8583061F3410382F8AC
:101FA0005830786800F04CF8B860BB68002B05D05A
:101FB000BB689B6900220E21B8689847B86801F099
:101FC000A5FB00E000BF1037BD4680BD80B582B0E4
:101FD00000AF786039607B681C333968184603F0BD
:101FE00021FA7B6893F8583003F00203DBB2002B30
:101FF00010D07B685B69002B06D07B685B697A68D0
:102000001C321046984715E07B681C33184600F0D8
:10201000D2F80FE07B681B69002B06D07B681B6938
:102020007A681C321046984704E07B681C331846D7
:1020300000F051F87B681C3318460837BD4680BD58
:1020400080B483B000AF78607B68002B01D100239F
:1020500008E07B68DB68002B01D1002302E07B688D
:10206000DB681B6818460C37BD4680BC704780B4DF
:1020700083B000AF78607B68002B01D100230BE0B8
:102080007B6893F858305B08DBB203F00103002B48
:1020900014BF01230023DBB218460C37BD4680BCB9
:1020A000704780B483B000AF78607B68002B01D1AB
:1020B00000230BE07B6893F858309B08DBB203F0F9
:1020C0000103002B14BF01230023DBB218460C3799
:1020D000BD4680BC7047F0B583B000AF78607A68C9
:1020E000FF21D17379688A7A6FF304028A72796862
:1020F0004A89292060F34A124A817968CA7A42F0F3
:10210000F802CA727A68127F02F00102D2B2002A83
:1021100004D07A68B2F90C20002A02D07A6805212E
:1021200091816FF30403292262F34A1343F4784345
:102130007A683A607868B22219464088FFF728FD2D
:102140003A6850806FF30406292363F34A16334636
:1021500043F478431E467B683B607B68B22231467D
:102160009888FFF715FD3B6898806FF304052923D5
:1021700063F34A152B4643F478431D467E687B681B
:1021800099222946188AFFF703FD30826FF3040471
:10219000292363F34A14234643F478431C467D689D
:1021A0007B68B2222146188CFFF7F2FC288400BF1E
:1021B0000C37BD46F0BDF0B583B000AF78607A68EB
:1021C000FF21D17379688A7A6FF304028A72796881
:1021D0004A89202060F34A124A817968CA7A6FF3EB
:1021E000C702CA727A68127F02F00102D2B2002AD4
:1021F00004D07A68B2F90C20002A02D07A6805214E
:1022000091816FF30403202262F34A136FF3CF230B
:102210007A683A607868B22219464088FFF7B8FCBD
:102220003A6850806FF30406202363F34A166FF375
:10223000CF267B683B607B68B22231469888FFF7E7
:10224000A7FC3B6898806FF30405202363F34A15CD
:102250006FF3CF257E687B6899222946188AFFF79D
:1022600097FC30826FF30404202363F34A146FF366
:10227000CF247D687B68B2222146188CFFF788FC4A
:10228000288400BF0C37BD46F0BD000080B500AF0C
:10229000002303223221044809F0A2FF002000F0AD
:1022A00005F800BF80BD00BFF922000880B584B0EA
:1022B00000AF78607B68002B07D07A6892F83430E2
:1022C00043F0020382F8343012E0002008F0EAFC08
:1022D000F8600AE0FA6892F8343043F0020382F8BA
:1022E0003430F86808F0DEFCF860FB68002BF1D1B0
:1022F00000BF1037BD4680BD80B588B000AF7860A4
:10230000002008F0CFFCF86159E0324AFB69136005
:10231000F86900F065FDFB6993F8343003F00403BD
:10232000DBB2002B47D107F10C031946F86908F01E
:10233000D3FC0346FB76F86900F052FD3A7DFB6959
:102340001A73FB691B7B012B04D108F0FBFC0246CE
:10235000FB699A63FB691B78012B06D107F10C031B
:102360001946F86900F038F81FE0FB691B78022B6A
:1023700006D107F10C031946F86900F079F814E06A
:10238000FB691B78042B06D107F10C031946F86989
:1023900000F02CF909E0FB691B78032B05D107F14C
:1023A0000C031946F86900F07FFAF86900F018FD8F
:1023B000FB7E002BB7D1F86908F074FCF861FB696B
:1023C000002BA2D1034B00221A6000BF2037BD466C
:1023D00080BD00BF8001002080B582B000AF786072
:1023E00039607B68DB6B002B1AD07B68B3F9142053
:1023F0003B68B3F900309A4207D17B68B3F91620E5
:102400003B68B3F902309A420AD07B68D86B3B68CC
:10241000B3F900103B68B3F902301A4601F0F9F93C
:102420003B68B3F900207B681A823B68B3F902204D
:102430007B685A827B681B7B012B05D17B680C3340
:10244000184600F077FA04E07B680C33184600F079
:10245000EDFB7B68B3F910207B689A827B68B3F947
:1024600012207B68DA8200BF0837BD4680BD0000BD
:1024700080B584B000AF786039607B68DB6B002B7F
:1024800000F0AC803B681B7A012B09D17B681B7C78
:10249000002B05D108F056FC02467B68DA6294E016
:1024A0003B681B7A012B31D17B681B7C012B2DD122
:1024B0003B681B680A2B40F087807B6893F83430B8
:1024C00003F00103DBB2002B7ED17B68DB6A184688
:1024D00008F050FC0346B3F5C87F75D97B68DB6B09
:1024E0001846FFF7ADFDF860FB68002B6CD0FB6869
:1024F0009B693D4A12680A21F86898477A6892F801
:10250000343043F0010382F834305DE03B681B7ADD
:10251000002B5AD17B681B7C012B56D17B685A69F2
:102520003B681A603B681B68092B03D03B681B683B
:102530000B2B05D17B68DB6B00211846FFF714FDE0
:102540003B681B68092B05D17B68DB6B1846FFF7DE
:1025500038FC26E03B681B680B2B05D17B68DB6BE6
:102560001846FFF78CFC1CE03B681B680A2B10D157
:102570007B6893F8343003F00103DBB2002B10D1F9
:102580007B68DA6B3B681B6819461046FFF7D5FC81
:1025900007E07B68DA6B3B681B6819461046FFF75B
:1025A000CCFC7B6893F8343003F00203DBB2002BE1
:1025B00016D17B680022DA627A6892F834306FF3C1
:1025C000000382F8343000E000BF3B681A7A7B6871
:1025D0001A743B681A687B685A6102E000BF00E029
:1025E00000BF1037BD4680BD8001002090B589B086
:1025F00000AF786039607B68DB6B002B00F04C81AA
:102600003B681B7A002B68D17B68DB6B1846FFF7B1
:102610002EFD0346002B31D03B68B3F90030002B70
:1026200013DA0023FB6108E07B68DB6B142118469A
:10263000FFF783FCFB690133FB613B68B3F90030B2
:102640005B42FA699A42EFDB47E03B68B3F900303E
:10265000002B42DD0023FB6108E07B68DB6B13216C
:102660001846FFF76AFCFB690133FB613B68B3F96D
:1026700000301A46FB699342EFDB2EE03B68B3F96A
:102680000030002B12DA0023BB6107E07B68DB6BB4
:102690001846FFF7F4FBBB690133BB613B68B3F934
:1026A00000305B42BA699A42F0DB16E03B68B3F94E
:1026B0000030002B11DD0023BB6107E07B68DB6B82
:1026C0001846FFF77EFBBB690133BB613B68B3F97A
:1026D00000301A46BB699342F0DB3B681B7A012B42
:1026E00009D17B681B7C002B05D108F02BFB02462F
:1026F0007B68DA62C7E03B681B7A012B4DD17B68AF
:102700001B7C012B49D17B6893F8343003F0010323
:10271000DBB2002B40F0B6807B68DB6A184608F01D
:1027200029FB0346B3F5C87F40F2AC807B68DB6BC6
:102730001846FFF785FC78610023FB737B69002B4B
:1027400006D07B699B6907F10F02112178699847D0
:10275000FB7B002B0FD07B68DC6B7B68DB6B184648
:10276000FFF785FC034683F00103DBB219462046E0
:10277000FFF7FAFB09E07B69002B06D07B699B69B8
:10278000484A12680A21786998477A6892F8343082
:1027900043F0010382F8343074E03B681B7A002B6D
:1027A00071D17B681B7C012B6DD17B68DB6B18467C
:1027B000FFF746FC38610023BB733B69002B06D052
:1027C0003B699B6907F10E02112138699847BB7B71
:1027D00083F00103DBB2002B06D07B68DB6B0A21A0
:1027E0001846FFF7AAFB3AE07B68DB6B93F858309A
:1027F00003F00203DBB2002B0ED07B6893F8343079
:1028000003F00103DBB2002B29D17B68DB6B0A21CB
:102810001846FFF792FB22E0BB7B002B1FD07B68A2
:10282000DB6B93F8583003F00203DBB2002B16D1B8
:102830007B6893F8343003F00103DBB2002B0ED138
:102840007B68DC6B7B68DB6B1846FFF710FC03468C
:1028500083F00103DBB219462046FFF785FB7B6856
:1028600093F8343003F00203DBB2002B16D17B68FF
:102870000022DA627A6892F834306FF3000382F84B
:10288000343000E000BF3B681A7A7B681A743B68FA
:102890001A687B685A6102E000BF00E000BF24377D
:1028A000BD4690BD8001002080B582B000AF786049
:1028B00039607B68DA6B3B681B689B001344B3F993
:1028C00000207B681A827B68DA6B3B681B689B0080
:1028D0001344B3F902207B685A827B68B3F9142051
:1028E0007B68B3F910309A4211D17B68B3F9162096
:1028F0007B68B3F912309A4209D13B681B7A012BED
:1029000005D17B680C33184600F014F804E07B68AE
:102910000C33184600F08AF97B68B3F910207B6805
:102920009A827B68B3F912207B68DA8200BF08378D
:10293000BD4680BD80B586B000AF78607B685B69BE
:102940007B617B681B7F03F00403DBB2002B40F04C
:102950005B817B685B69002B13D101F053FB03465D
:102960001946786800F07BFA78617B69002B2ED1DC
:1029700001F03EFB03461946786800F070FA786172
:1029800025E07B681B7F03F00203DBB2002B1ED126
:102990007B685B691021184601F0B9FC034683F09F
:1029A0000103DBB2002B12D001F02CFB03461946C9
:1029B000786800F054FA78617B69002B07D101F048
:1029C00017FB03461946786800F049FA78617B687E
:1029D0005B697A699A4276D07B68B3F904207B6898
:1029E0001A817B68B3F906207B685A817B685B6932
:1029F000002B11D07B685B699B697A6850698A4AB1
:102A00001268082198477B6893F8283003F0020386
:102A1000DBB2002B40F0FA807B69002B53D008F02A
:102A200091F902467B681A627A6892F828306FF34F
:102A3000000382F828307A68137F6FF3000313775E
:102A40007A68137F6FF3410313777B6800221A8241
:102A50007B6800225A827B693B610023FB600DE0AA
:102A60003B6993F8303003F02003DBB2002B01D038
:102A70003B69FB60386901F0EDFA38613B69002B76
:102A8000EED1FB68002B0ED0F86801F0E3FAB860D5
:102A9000BB68181DBB680433FA68194608F0C8FF04
:102AA000F86800F033FE7B699B695F4A1268062173
:102AB000786998477B6893F8283003F00203DBB20B
:102AC000002B40F0A5807B687A695A617B685A695F
:102AD0007B689A617B68B3F904309AB27B68B3F97A
:102AE00008309BB2D31A9BB21AB27B689A817B687A
:102AF000B3F906309AB27B68B3F90A309BB2D31AA5
:102B00009BB21AB27B68DA817B685B69002B00F0AC
:102B100088807B685B699B697A685069424A126861
:102B2000072198477B6893F8283003F00203DBB253
:102B3000002B6FD1786800F0E5F97B6893F82830B6
:102B400003F00203DBB2002B66D17B681B7F03F02E
:102B50000203DBB2002B2BD17B6893F8283003F003
:102B60000103DBB2002B23D17B681B6A184608F0F7
:102B700001F90346B3F5C87F1AD97B699B692A4AD4
:102B800012680A21786998477B6893F8283003F027
:102B90000203DBB2002B41D17A6892F8283043F06F
:102BA000010382F8283008F0CDF802467B685A62AB
:102BB0007B681B7F03F00203DBB2002B31D17B6803
:102BC00093F8283003F00103DBB2002B29D07B6897
:102BD0005B6A184608F0CEF80346642B21D97B695E
:102BE0009B69114A12680B21786998477B6893F8B2
:102BF000283003F00203DBB2002B11D108F0A2F859
:102C000002467B685A620CE000BF0AE000BF08E0A1
:102C100000BF06E000BF04E000BF02E000BF00E02C
:102C200000BF1837BD4680BD8001002080B586B04A
:102C300000AF78607B681B7F03F00403DBB2002BDE
:102C400010D07B6800225A617B6800229A617B6801
:102C500000221A627B6800225A627A68137F6FF33F
:102C6000820313777B685B69002B00F09A807B6896
:102C70005B691021184601F04AFB0346002B1FD068
:102C80007B685B691946786800F0E9F8F8607B6852
:102C90005B69FA689A4209D17B685B699B697A68CB
:102CA00050694E4A12680921984712E07B685B69B7
:102CB0009B697A685069494A12680821984708E078
:102CC0007B685B699B697A685069444A126809218C
:102CD00098477B6893F8283003F00203DBB2002B9F
:102CE00076D17B685B69184601F03DFBB860B86837
:102CF000FFF7BDF90346002B03D00021B868FFF7AA
:102D000033F97B685B692021184601F000FB03461C
:102D100083F00103DBB2002B32D07B685B6918467D
:102D200001F021FB78617B685B693B6114E03869E5
:102D300001F090F938613B69002B11D020213869EE
:102D400001F0E5FA0346002B02D000233B6108E0C6
:102D5000386901F008FB78617B69002BE7D000E05F
:102D600000BF7B69002B0BD03B69002B08D0786932
:102D7000FFF797F90346002B02D03869FEF7B3FF3F
:102D80007B6893F8283003F00203DBB2002B21D1DB
:102D90007B6800225A617B6800221A627B680022ED
:102DA0005A627B689B69002B15D07B6893F82830AA
:102DB00003F00203DBB2002B0DD1786800F074F948
:102DC0007B6893F8283003F00203DBB2002B02E0AB
:102DD00000BF00E000BF1837BD4680BD8001002065
:102DE00080B483B000AF78607B6893F8343003F030
:102DF0000203DBB2002B2DD07B6800221A627B68B5
:102E000000225A627A6892F828306FF3000382F841
:102E100028307A6892F828306FF3410382F828301E
:102E20007A6892F834306FF3000382F834307B68AC
:102E30000022DA627B6800221A637B6800229A8390
:102E40007B680022DA837A6892F834306FF34103AA
:102E500082F8343000BF0C37BD4680BC704780B567
:102E600086B000AF7860396000237B613B6803F176
:102E700010027B6804331946104608F066FA0346D0
:102E8000002B3AD03B680433184608F000FE386146
:102E90000EE039697868FFF7E2FF78617B69002B03
:102EA0000AD13B6804333969184608F014FE3861CA
:102EB0003B69002BEDD100E000BF7B69002B1CD1EA
:102EC000386801F0B5F90346002B16D03B68FB606B
:102ED00009E0F86801F098F90346002B07D1F8687B
:102EE00001F0B8F8F860FB68002BF2D100E000BFF9
:102EF000FB68002B01D13B687B617B691846183762
:102F0000BD4680BD80B586B000AF78607B685B69E8
:102F10007B6103E0786901F09DF87861786901F0E0
:102F2000C3F90346002B02D07B69002BF2D17B69E9
:102F3000002B00F0AF80786901F08EF9034683F032
:102F40000103DBB2002B40F0A7807B681B7F03F0FE
:102F50000103DBB2002B2ED17B68B3F910309AB29B
:102F60007B68B3F90C309BB213449BB21AB27B68F6
:102F70001A827B68B3F912309AB27B68B3F90E30CB
:102F80009BB213449BB21AB27B685A827B68B3F936
:102F90001030002BB8BF5B42092B07DC7B68B3F90C
:102FA0001230002BB8BF5B42092B04DD7A68137F17
:102FB00043F0010313777B681B7F03F00103DBB24F
:102FC000002B6CD07B68B3F90C30002B04D17B68EC
:102FD000B3F90E30002B62D0786901F06FF8034628
:102FE0007B82786901F083F803463B8201F0F4FBB1
:102FF0000346FB817B691B8ABB817B695B8A7B8182
:103000007B68B3F90C309AB27B8A13449BB219B235
:103010007B68B3F90E309AB23B8A13449BB21BB261
:103020001A46786900F0F5FB7B69B3F91030B7F9FF
:103030000C209A4206D17B69B3F91230B7F90A2005
:103040009A421BD07B681B7F03F00103DBB2002B8D
:103050000ED07B699B69134A12680C2178699847E6
:103060007B6893F8283003F00203DBB2002B15D104
:103070007A68137F43F00203137710E001F0ACFB92
:1030800003463B813A89FB89D31A9BB2184601F06B
:10309000ADFB04E000BF02E000BF00E000BF183756
:1030A000BD4680BD8001002080B584B000AF78604F
:1030B0007B681B7F03F00203DBB2002B00F0B380C0
:1030C0007B689B69FB6003E0F86800F0C3FFF86071
:1030D000F86801F0E9F80346002B02D0FB68002BEA
:1030E000F2D1FB68002B00F0A080F86801F0C8F86E
:1030F000034683F00103DBB2002B0CD07A68137F08
:103100006FF341031377FB689B694B4A12680D21EB
:10311000F86898478CE07B68B3F90C301A46134680
:103120009B0013441B01454A82FB03125211DB171B
:10313000D31A1AB27B689A817B68B3F90E301A46AB
:1031400013469B0013441B013C4A82FB031252119D
:10315000DB17D31A1AB27B68DA817B68B3F90C30BB
:10316000002B04D17B68B3F90E30002B4ED0F868E9
:1031700000F0A4FF03469AB27B68B3F90C309BB20F
:1031800013449BB27B81F86800F0B1FF03469AB20A
:103190007B68B3F90E309BB213449BB23B81B7F905
:1031A0000820B7F90A301946F86800F032FBF868D1
:1031B00000F084FF03461A46B7F90A30934204D15F
:1031C0007B68B3F90C30002B31D1F86800F08FFF29
:1031D00003461A46B7F90830934204D17B68B3F925
:1031E0000E30002B23D17A68137F6FF341031377DE
:1031F0007B6800229A817B680022DA81FB689B69E8
:103200000D4A12680D21F868984710E07A68137F1C
:103210006FF341031377FB689B69074A12680D211E
:10322000F868984704E000BF02E000BF00E000BF7C
:103230001037BD4680BD00BF800100201F85EB51C7
:1032400080B582B000AF786039600822396878684C
:103250000DF054FC00BF0837BD4680BD80B483B07C
:1032600000AF78607B68B3F904309AB27B68B3F939
:1032700000309BB2D31A9BB201339BB21BB21846EB
:103280000C37BD4680BC704780B483B000AF786017
:103290007B68B3F906309AB27B68B3F902309BB20F
:1032A000D31A9BB201339BB21BB218460C37BD46F2
:1032B00080BC704780B500AF08F08CFC08F094FE2D
:1032C00008F064FA09F02CFD08F040F907F06EFDF3
:1032D00001F03AFE01F0E2F93C21184808F07CFACE
:1032E0000021002000F036F80246154B1A60144BFE
:1032F0001B68144A13600021002000F02BF80246DE
:10330000114B1A60104B1B681049184600F0F2FD73
:103310000021002000F01EF802460D4B1A600C4BF5
:103320001B680A49184600F0E5FD064B1B68184665
:1033300000F0ECF9FEF7AAFF00BF80BD9401002069
:1033400084010020880100208C010020344F0020DF
:103350009001002090B587B000AF786039600023FD
:103360007B617B68002B40F08280624808F053FA52
:1033700078617B69002B00D1FEE77B69002B01D1CE
:103380000023B9E17B6900221A607B6904333C2188
:10339000184608F021FA7B6900221A827B69002214
:1033A0005A827B6940F23F129A827B69EF22DA826D
:1033B0007B6900229A860BF0A7F8F860FB68002B67
:1033C00004D0FB681A687B695A6202E07B694A4A4A
:1033D0005A624A49786900F0C6FD4949786900F0A7
:1033E000CFFD7B6900229A637B6900229A627B6928
:1033F0000022DA627A6992F830306FF3000382F8C3
:1034000030307A6992F830306FF3410382F830300F
:103410007A6992F830306FF3820382F830307A693B
:1034200092F830306FF3C30382F830307A6992F843
:1034300030306FF3041382F830307A6992F830300C
:103440006FF3451382F830307A6992F830306FF3B9
:10345000861382F830307B69002283F831207B6943
:10346000FF2283F832207B6900221A629AE07B688F
:103470000433184608F0CFF978617B69002B00D13E
:10348000FEE77B69002B01D1002335E17B697A6877
:103490001A607B6904333C21184608F09DF97B686B
:1034A000B3F910207B691A827B68B3F912207B691B
:1034B0005A827B68B3F910309BB264339BB21AB264
:1034C0007B699A827B68B3F912309BB242339BB21C
:1034D0001AB27B69DA827B6900229A860BF014F8B3
:1034E00038613B69002B0DD03B695A687B695A6291
:1034F0000BE000BF94010020E84F0020B144000819
:10350000AD4300087B697E4A5A627E49786900F0C3
:103510002AFD7D49786900F033FD7B6900229A63BA
:103520007B6900229A627B690022DA627A6992F8EA
:10353000303043F0010382F830307A6992F830304D
:103540006FF3410382F830307A6992F830306FF3CC
:10355000820382F830307A6992F830306FF3C30317
:1035600082F830307A6992F830306FF3041382F8C1
:1035700030307A6992F830306FF3451382F830308A
:103580007B69002283F831207B69FF2283F8322097
:103590007A6992F830306FF3861382F830307B69A5
:1035A00000221A623B68002B00F099807B6903F1CE
:1035B00010023B68103319461046FFF741FE3B6886
:1035C000B3F934207B699A863B689A6B7B699A636E
:1035D0003B689A6A7B699A623B6893F83030C3F320
:1035E0000003D9B27A6992F8303061F3000382F8AF
:1035F00030303B6893F83030C3F34003D9B27A6976
:1036000092F8303061F3410382F830303B6893F830
:103610003030C3F38003D9B27A6992F8303061F365
:10362000820382F830303B6893F83030C3F3C00334
:10363000D9B27A6992F8303061F3C30382F830303E
:103640003B6893F83030C3F30013D9B27A6992F82B
:10365000303061F3041382F830303B6893F8303037
:10366000C3F34013D9B27A6992F8303061F345134D
:1036700082F830303B6893F83030C3F38013D9B20E
:103680007A6992F8303061F3861382F830303B6803
:1036900093F831207B6983F831203B6893F832201E
:1036A0007B6983F832203B685A6A7B695A623B68BF
:1036B000DB6A002B05D03B68DB6A79691846FEF7A8
:1036C000D7FA386800F0FAFC03461C46386800F068
:1036D0000EFD03461A462146786900F09AF87B6889
:1036E000002B08D07B689B697A690121786898472C
:1036F000786900F00BF87B6918461C37BD4690BD11
:1037000060500020B1440008AD43000880B588B087
:1037100000AF7860786800F077FD0346002B72D127
:10372000786800F083FC786100F062FC02467B69F7
:1037300093420BD000F066FC02467B69934205D0B1
:1037400000F06AFC02467B6993425FD1786800F022
:1037500081FCF8610123FB767B689B8E7B827B6812
:1037600003F1100207F1080311461846FFF768FD40
:10377000B7F908309AB27B8AD31A9BB21BB23B814D
:10378000B7F90A309AB27B8AD31A9BB21BB27B81FB
:10379000B7F90C309AB27B8A13449BB21BB2BB813F
:1037A000B7F90E309AB27B8A13449BB21BB2FB81ED
:1037B0001BE0FB6903F1100207F1080107F10803A0
:1037C000184607F037FD0346FB76FB7E83F00103C6
:1037D000DBB2002B0DD1F86900F016FD0346002B7B
:1037E00013D1F86900F036FCF861FB69002BE0D1D9
:1037F00000E000BFFB7E002B08D007F1080318464D
:1038000000F06CFF02E000BF00E000BF2037BD46C3
:1038100080BD80B586B000AF78600B467B801346D4
:103820003B807B681B687B617B69B3F910309AB27F
:103830007B8813449BB27B807B69B3F912309AB2C8
:103840003B8813449BB23B807A887B68B3F9103085
:103850009BB2D31A9BB21BB23B823A887B68B3F906
:1038600012309BB2D31A9BB21BB27B82B7F91030D5
:10387000002B03D1B7F91230002B51D07868FFF735
:1038800045FF07F108031946786800F008FC7B68DB
:10389000B3F910309AB2B7F910309BB213449BB20F
:1038A0001AB27B681A827B68B3F912309AB2B7F900
:1038B00012309BB213449BB21AB27B685A827B6867
:1038C000B3F914309AB2B7F910309BB213449BB2DB
:1038D0001AB27B689A827B68B3F916309AB2B7F94C
:1038E00012309BB213449BB21AB27B68DA82B7F9EA
:1038F0001030B7F912201946786800F01BFE7B687B
:103900009B6907F108020221786898477B699B69E7
:103910007A680121786998477868FFF7F7FE00E038
:1039200000BF1837BD4680BD80B582B000AF78605B
:103930000B467B80786800F0DAFB03461A46B7F93D
:10394000023019467868FFF764FF00BF0837BD46AC
:1039500080BD80B582B000AF78600B467B80786810
:1039600000F0ACFB03461946B7F902301A467868F6
:10397000FFF74FFF00BF0837BD4680BD80B586B05A
:1039800000AF78600B467B8013463B80786800F080
:10399000C7FB03461A46B7F90230934208D178684C
:1039A00000F0CCFB03461A46B7F90030934238D0FA
:1039B0007868FFF7ABFE07F10C031946786800F052
:1039C0006EFB7B68B3F910309AB27B8813449BB2CC
:1039D000013B9BB21AB27B689A827B68B3F91230C2
:1039E0009AB23B8813449BB2013B9BB21AB27B68EC
:1039F000DA827B689B6907F10C020221786898479C
:103A0000786800F027FB78617B69002B05D07B6923
:103A10009B697A680121786998477868FFF776FE94
:103A200000E000BF1837BD4680BD80B582B000AF52
:103A300078600B467B80786800F072FB034619467D
:103A4000B7F902301A467868FFF798FF00BF0837C9
:103A5000BD4680BD90B589B000AFF860B960114631
:103A60001A460B46FB711346BB80F86800F026FB34
:103A70000346FB83F86800F03AFB0346BB83BB6850
:103A8000002B03D1F86800F0E5FAB860FB79142B3D
:103A900000F2F98101A252F823F000BFF13A0008C8
:103AA000473B0008513B0008813B0008A13B000850
:103AB000C13B0008073C00083D3C00086D3C000885
:103AC000B33C0008C93C0008053D0008313D000832
:103AD000413D0008773D00089D3D0008B33D0008CA
:103AE000EF3D00081B3E00082B3E0008613E000829
:103AF000B86800F015FB0346DA0F13445B101BB2E5
:103B00009CB2F86800F00CFB0346DA0F13445B101C
:103B10001BB29BB2E31A9BB2FB83B86800F00EFBAA
:103B20000346DA0F13445B101BB29CB2F86800F036
:103B300005FB0346DA0F13445B101BB29BB2E31A7A
:103B40009BB2BB839FE10023FB830023BB839AE1ED
:103B5000B86800F0E5FA0346DA0F13445B101BB2B5
:103B60009CB2F86800F0DCFA0346DA0F13445B10ED
:103B70001BB29BB2E31A9BB2FB830023BB8382E19F
:103B8000B86800F0CDFA03469CB2F86800F0C8FAB5
:103B900003469BB2E31A9BB2FB830023BB8372E113
:103BA0000023FB83B86800F0C9FA03469CB2F868AA
:103BB00000F0C4FA03469BB2E31A9BB2BB8362E1F6
:103BC000B86800F0ADFA0346DA0F13445B101BB27D
:103BD0009CB2F86800F0A4FA0346DA0F13445B10B5
:103BE0001BB29BB2E31A9BB2FB83B86800F0A6FA43
:103BF00003469CB2F86800F0A1FA03469BB2E31AB0
:103C00009BB2BB833FE1B86800F08AFA03469CB2DE
:103C1000F86800F085FA03469BB2E31A9BB2FB8377
:103C2000B86800F08BFA03469CB2F86800F086FA98
:103C300003469BB2E31A9BB2BB8324E10023FB83C0
:103C4000B86800F07BFA0346DA0F13445B101BB22E
:103C50009CB2F86800F072FA0346DA0F13445B1066
:103C60001BB29BB2E31A9BB2BB830CE1B86800F0B5
:103C700057FA03469CB2F86800F052FA03469BB22A
:103C8000E31A9BB2FB83B86800F058FA0346DA0FD8
:103C900013445B101BB29CB2F86800F04FFA034665
:103CA000DA0F13445B101BB29BB2E31A9BB2BB83C7
:103CB000E9E00023FB83F86800F040FA03469BB27A
:103CC0005B429BB2BB83DEE0B86800F029FA034692
:103CD000DA0F13445B101BB29CB2F86800F020FAB4
:103CE0000346DA0F13445B101BB29BB2E31A9BB27C
:103CF000FB83F86800F022FA03469BB25B429BB25A
:103D0000BB83C0E0B86800F00BFA03469CB2F868C9
:103D100000F006FA03469BB2E31A9BB2FB83F868F5
:103D200000F00CFA03469BB25B429BB2BB83AAE055
:103D30000023FB83B86800F001FA0346BB83A2E0CE
:103D4000B86800F0EDF90346DA0F13445B101BB2BC
:103D50009CB2F86800F0E4F90346DA0F13445B10F4
:103D60001BB29BB2E31A9BB2FB83B86800F0E6F982
:103D70000346BB8387E0B86800F0D2F903469CB2E3
:103D8000F86800F0CDF903469BB2E31A9BB2FB83BF
:103D9000B86800F0D3F90346BB8374E0F86800F01C
:103DA000BFF903469BB25B429BB2FB830023BB83FC
:103DB00069E0F86800F0B4F903469BB25B429BB23D
:103DC000FB83B86800F0BAF90346DA0F13445B10BE
:103DD0001BB29CB2F86800F0B1F90346DA0F134445
:103DE0005B101BB29BB2E31A9BB2BB834BE0F8683B
:103DF00000F096F903469BB25B429BB2FB83B86826
:103E000000F09CF903469CB2F86800F097F903466D
:103E10009BB2E31A9BB2BB8335E0B86800F080F92F
:103E20000346FB830023BB832DE0B86800F078F9DC
:103E30000346FB83B86800F081F90346DA0F1344A8
:103E40005B101BB29CB2F86800F078F90346DA0FF9
:103E500013445B101BB29BB2E31A9BB2BB8312E00C
:103E6000B86800F05DF90346FB83B86800F066F9B6
:103E700003469CB2F86800F061F903469BB2E31A6E
:103E80009BB2BB8300BFF86800F0E4F8B861BB6880
:103E90001B8AFB82BB685B8ABB82BB691B8A7B82F5
:103EA000BB695B8A3B82BA88FB8A13449AB2FB8B5C
:103EB00013449BB2FB833A8EBB8A13449AB2BB8BEA
:103EC00013449BB2BB83FA8B7B8AD31A9BB2FB83CE
:103ED000BA8B3B8AD31A9BB2BB83B7F91C20B7F9C4
:103EE0001E301946F868FFF794FC00BF2437BD4622
:103EF00090BD00BF80B582B000AF786039607B684C
:103F00003A685A62786800F062FB786800F004F85A
:103F100000BF0837BD4680BD80B582B000AF786075
:103F20007868FFF7F3FB7B689B69002203217868C0
:103F300098477868FFF7EAFB00BF0837BD4680BDA9
:103F400080B483B000AF78600B46FB70F9787A6874
:103F500092F8303061F3000382F8303000BF0C3744
:103F6000BD4680BC704780B483B000AF78603960D4
:103F70007B683A689A6100BF0C37BD4680BC7047C9
:103F800080B483B000AF786039607B683A68DA61EA
:103F900000BF0C37BD4680BC704780B582B000AF13
:103FA00078600B467B807B681B6A7A8811461846CE
:103FB00007F0A4FE02467B681A627B681B6A1846FB
:103FC0000837BD4680BD80B582B000AF78607B68A1
:103FD00000229A867B689B690022042178689847B2
:103FE0007868FFF793FB00BF0837BD4680BD00002F
:103FF00080B400AF024B1B681846BD4680BC7047BA
:104000008801002080B400AF024B1B681846BD46F3
:1040100080BC70478C01002080B400AF024B1B684D
:104020001846BD4680BC70479001002080B584B022
:1040300000AF78607B68FB60FB68BB60B86800F02D
:1040400009F8F860FB68002BF6D1BB6818461037FA
:10405000BD4680BD80B483B000AF78607B681B68CC
:1040600018460C37BD4680BC704780B582B000AFA3
:10407000786039603B68002B06D17B6804331846B2
:1040800007F005FD034606E07B68043339681846EF
:1040900007F021FD034618460837BD4680BD80B5B0
:1040A00082B000AF786039607B6810331946386899
:1040B000FFF7C6F800BF0837BD4680BD80B584B0A5
:1040C00000AF78607868FFF7C5FFF8607B68B3F9E8
:1040D00010309AB2FB68B3F910309BB2D31A9BB27E
:1040E0007B81B7F90A3018461037BD4680BD80B5D0
:1040F00084B000AF78607868FFF7ACFFF8607B6849
:10410000B3F912309AB2FB68B3F912309BB2D31AEA
:104110009BB27B81B7F90A3018461037BD4680BD87
:1041200080B582B000AF78607B6810331846FFF727
:1041300095F8034618460837BD4680BD80B582B065
:1041400000AF78607B6810331846FFF79DF8034690
:1041500018460837BD4680BD80B586B000AF786090
:104160007B685B6A7B617B69002B2CD17B681B6859
:104170003B6125E03B695B6A002B1ED03B695B6AB3
:104180001B7803F00103DBB2002B16D1386900F075
:10419000EAF8F860F868FDF753FF02463B6993427E
:1041A00007D13B695B6A1946F868FDF70FFF786134
:1041B00009E03B695B6A7B6105E03B691B683B6129
:1041C0003B69002BD6D17B68DB6A002B0FD07B6864
:1041D000DB6A1846FDF734FF02467B68934206D13E
:1041E0007B68DB6A79691846FDF7F0FE78617B69C8
:1041F000002B01D1034B7B617B6918461837BD4604
:1042000080BD00BF704F002080B483B000AF7860E5
:104210007B6893F8303003F01003DBB2002B14BF3F
:1042200001230023DBB218460C37BD4680BC704723
:1042300080B483B000AF78607B6893F8303003F0CF
:104240000103DBB2002B14BF01230023DBB21846AD
:104250000C37BD4680BC704780B483B000AF786037
:104260007B6893F8303003F00203DBB2002B14BFFD
:1042700001230023DBB218460C37BD4680BC7047D3
:1042800080B483B000AF78607B6893F8303003F07F
:104290000403DBB2002B14BF01230023DBB218465A
:1042A0000C37BD4680BC704780B483B000AF7860E7
:1042B0007B6893F8303003F00803DBB2002B14BFA7
:1042C00001230023DBB218460C37BD4680BC704783
:1042D00080B584B000AF78607B68FB600FE0FB685E
:1042E00093F8303003F04003DBB2002B03D0FB68BF
:1042F00093F8323007E0F868FFF7ACFEF860FB682F
:10430000002BECD1FF2318461037BD4680BD80B48A
:1043100083B000AF78600B46FB707B6893F8312068
:10432000FB781340DBB2002B14BF01230023DBB268
:1043300018460C37BD4680BC704780B483B000AFD0
:1043400078607B689B6918460C37BD4680BC704717
:1043500080B483B000AF78607B681B6A18460C3766
:10436000BD4680BC704780B483B000AF78607B6886
:10437000DB6A18460C37BD4680BC704780B582B0FA
:1043800000AF78607B68DB6A002B0AD07B68DB6A51
:104390001846FDF755FE02467B68934201D1012382
:1043A00000E0002318460837BD4680BD90B58BB0AD
:1043B00000AFF860B9601346FB71FB79022B5FD147
:1043C000F868FFF7C9FE38623B6A1B7F03F0010300
:1043D000DBB2002B01D0002366E03B6AB3F9063064
:1043E000FB83FB8B43F6FF72934201D100235BE01A
:1043F00007F114031946F868FFF751FEB7F91430B6
:104400009AB2FB8B13449BB21BB2BB82B7F9183034
:104410009AB2FB8BD31A9BB21BB23B8307F11403F6
:104420001946B86806F0EDFF034683F00103DBB2DE
:10443000002B01D0002337E007F114031946F86878
:10444000FFF72DFEB7F916309AB2FB8B13449BB2DF
:104450001BB2FB82B7F91A309AB2FB8BD31A9BB20C
:104460001BB27B8307F114031946B86806F0C9FF35
:10447000034683F00103DBB2002B14D0002313E0CA
:10448000FB79002B0FD1F868FFF766FE7862FB68B6
:1044900003F11004F868FFF71BFF03467A6AB96856
:1044A000204601F0B3FB012318462C37BD4690BDD2
:1044B00080B588B000AFF8600B467A60FB720123CC
:1044C000FB77F868FFF748FEB861FB7A012B09D14A
:1044D0000121F868FFF71BFF0346002B22D00023C1
:1044E000FB771FE0FB7A042B0DD1BB69B3F91220D7
:1044F000FB68B3F934309A4214DDBB69B3F912207A
:10450000FB689A860EE0FB7A032B03D1F868FFF76D
:104510005AFD07E0FB7A052B04D17B687B617B6940
:10452000034A1A60FB7F18462037BD4680BD00BF96
:10453000340E010880B584B000AF78600B467B80F4
:1045400013463B807B680433184607F0A0FAF860F6
:1045500036E0FB68B3F910309AB27B8813449BB203
:104560001AB2FB681A82FB68B3F912309AB23B8820
:1045700013449BB21AB2FB685A82FB68B3F9143039
:104580009AB27B8813449BB21AB2FB689A82FB688A
:10459000B3F916309AB23B8813449BB21AB2FB6847
:1045A000DA82B7F90020B7F902301946F868FFF748
:1045B000C1FF7B680433F968184607F08CFAF8608D
:1045C000FB68002BC5D100BF1037BD4680BD80B54C
:1045D00084B000AF786000217868FFF746FDF8608E
:1045E0001AE0FB685B6A002B06D1F868FFF7EFFF63
:1045F000F868FFF791FC0AE0FB685B6A1B7803F040
:104600000103DBB2002B02D0F868FFF7E0FFF96886
:104610007868FFF72AFDF860FB68002BE1D100BF46
:104620001037BD4680BD80B582B000AF786039607C
:104630000822396878680CF061FA00BF0837BD4677
:1046400080BD80B483B000AF78607B68B3F904307C
:104650009AB27B68B3F900309BB2D31A9BB2013394
:104660009BB21BB218460C37BD4680BC704780B465
:1046700083B000AF78607B68B3F906309AB27B688C
:10468000B3F902309BB2D31A9BB201339BB21BB277
:1046900018460C37BD4680BC7047000080B582B01C
:1046A00000AF0B4B00221A804FF4A0720021094882
:1046B0000CF02FFA002303221E21074807F090FD7B
:1046C0007860786807F022FE00BF0837BD4680BDDD
:1046D000E0020020A00100202548000880B588B035
:1046E00000AF78607B68002B03D1384B00221A8022
:1046F00068E00023BB820023FB8240F23F133B8330
:10470000EF237B8307F1140207F10C037968184645
:1047100006F090FD03467B777B7F002B52D02C4B1D
:104720001B68002B05D02A4B1B6807F10C021046B2
:1047300098470023FB8312E0FA8B13469B00134437
:104740005B00244A1A4407F10C031146184606F090
:1047500058FE0346002B34D1FB8B0133FB831B4BEC
:104760001B88FA8B9A42E7D3184B1B881F2B0FD854
:10477000164B1B881A4613469B0013445B00154AD0
:10478000134407F10C0211461846FFF74CFF11E0E5
:104790000E4B00221A800D4B1B881A4613469B00B5
:1047A00013445B000B4A134407F1140211461846E8
:1047B000FFF739FF054B1B8801339AB2034B1A8070
:1047C00000E000BF2037BD4680BD00BFE0020020F2
:1047D000E8020020A001002080B400AF024B1B883B
:1047E0001846BD4680BC7047E002002080B483B00C
:1047F00000AF0346FB800A4B1B88FA889A4203D914
:10480000074B00221A8006E0054B1A88FB88D31A52
:104810009AB2034B1A8000BF0C37BD4680BC70476C
:10482000E002002090B585B000AF786006F08AFA0B
:10483000B86000F031F800F0D1F80023FB73124BA0
:104840001B88002B01D00123FB734FF4A0720021C1
:104850000E480CF05EF90C4B00221A80FB7B002BFB
:104860000ED00B4B1B68002B0AD0094B1C68B86894
:1048700006F080FA0246074B1B6819461046A0470F
:1048800000BF1437BD4690BDE0020020A00100200B
:10489000E4020020EC020020B0B584B000AF002399
:1048A000BB608BE04B49BA6813469B0013445B0026
:1048B0000B4408331B78002B7CD10023FB6072E093
:1048C0004449FA6813469B0013445B000B440833C9
:1048D0001B78002B61D1BA68FB689A425DD0BA6838
:1048E00013469B0013445B003A4A9818FA68134633
:1048F0009B0013445B00374A1344194606F054FDED
:10490000034683F00103DBB2002B48D1BA6813469B
:104910009B0013445B002F4A9918FA6813469B00CA
:1049200013445B002B4A1A443B46184606F0D2FC5F
:104930003B46184606F05EFC0446BA6813469B00E8
:1049400013445B00234A1344184606F053FC054603
:10495000FA6813469B0013445B001E4A1344184632
:1049600006F048FC03462B449C4219D2BA68134611
:104970009B0013445B00174A13443A4611461846FD
:10498000FFF751FE1349FA6813469B0013445B007E
:104990000B44083301221A7002E000BF00E000BFA0
:1049A000FB680133FB600C4B1B881A46FB68934283
:1049B00086D300E000BFBB680133BB60064B1B8899
:1049C0001A46BB689342FFF46DAF00BF1037BD4677
:1049D000B0BD00BFA0010020E002002080B582B081
:1049E00000AF1E4B00221A6000237B602BE01C49A5
:1049F0007A6813469B0013445B000B4408331B7812
:104A0000002B1DD17A6813469B0013445B00144AA7
:104A10001344184600F02AF8124B1B68002B0FD0E5
:104A20007A6813469B0013445B000D4A13441846F2
:104A300006F0E0FB0246094B1B681344074A13606B
:104A40007B6801337B60084B1B881A467B68934266
:104A5000CDD300BF0837BD4680BD00BFEC020020AB
:104A6000A0010020E4020020E002002080B58AB00E
:104A700000AF78607868FFF7E4FD0346BB83786891
:104A8000FFF7F5FD03467B837B68B3F90630EF2B18
:104A900003DDEF233B83EF2302E07B68B3F90630AD
:104AA0003B83B7F91C304FF44862B2FBF3F37B62EF
:104AB000B7F91A307A6A9A4202DDB7F91A307B6286
:104AC0004E4B1B68002B2ED000233B810023BB8163
:104AD00000237B817B6A1BB2FB817B6A7B847B8C9E
:104AE000FB81464B1B6807F1080210469847B7F94F
:104AF00022309BB2013B9BB27B8407F1080318462E
:104B0000FFF7B5FD03461A467B6A934203DAB7F90D
:104B10002230002BE3D1B7F92230002B65D0B7F952
:104B20000E3001337B620023FB837B685B883B8410
:104B300032E000F085FC38613B69002B57D07B6880
:104B4000B3F900203B691A807B68B3F904203B6904
:104B50009A803B693A8C5A807B6A9AB23B8C1344A8
:104B60009BB2013B9BB21AB23B69DA803B69B3F955
:104B70000630B7F918209A4202DA3B693A8BDA809C
:104B80003B69DB88FB83786800F03AF87B6A9AB26D
:104B90003B8C13449BB23B84B7F920207B6A1344BF
:104BA0005A1EB7F918309A42C3DDB7F91820B7F981
:104BB0001E309A421ED000F043FC78617B69002BC6
:104BC00017D07B68B3F900207B691A807B68B3F942
:104BD00004207B699A807B693A8C5A807B693A8B86
:104BE000DA80786800F00CF804E000BF02E000BF53
:104BF00000E000BF2837BD4680BD00BFE8020020AE
:104C000080B586B000AF786000F01AFC78617B69EF
:104C1000002B2BD07A6907F108037968184606F053
:104C200009FBFFF7E5F9024607F1080311461846AC
:104C300000F020F8386107F108031946386900F0E0
:104C40006DF8FFF7DFF9024607F108031946104631
:104C500000F064F8FFF7E0F9024607F1080319468F
:104C6000104600F05BF800F003FC00E000BF1837CE
:104C7000BD4680BD80B586B000AF78603960002346
:104C80003B613B6810331946786806F0BAFB03466F
:104C9000002B3ED03B6893F8303003F01003DBB2BA
:104CA000002B36D13B680433184606F0F0FE7861DD
:104CB0000EE079697868FFF7DDFF38613B69002B0A
:104CC0000AD13B6804337969184606F004FF78611D
:104CD0007B69002BEDD100E000BF3B69002B18D1B0
:104CE0003868FFF739FAF860FB681B7AFF2B10D1A0
:104CF0003B68DB6902227968386898470346002BD5
:104D000007D03868FFF7E4FA0346FF2B01D13B6870
:104D10003B613B6918461837BD4680BD80B586B0FB
:104D200000AF786039607B68002B02D1FFF760F933
:104D300078603968786800F03CF87B68FB607868D8
:104D4000FFF788F978611BE07B690433F96818463E
:104D500006F0DAFE38610AE03968386900F029F8AF
:104D60007B6904333969184606F0CEFE38613B6929
:104D7000002BF1D17B69FB607869FFF76BF97861F3
:104D80007B69002BE0D17868FFF764F9786109E06E
:104D90007B69DB6901223968786998477869FFF790
:104DA00059F978617B69002BF2D100BF1837BD46F5
:104DB00080BD80B590B000AF786039607B6893F8B3
:104DC000303003F01003DBB2002B40F0B9807B6879
:104DD0009B8E7B8707F11C0319467868FFF75FF904
:104DE000B7F91C309AB27B8FD31A9BB21BB2BB832C
:104DF000B7F91E309AB27B8FD31A9BB21BB2FB83DA
:104E0000B7F920309AB27B8F13449BB21BB23B841C
:104E1000B7F922309AB27B8F13449BB21BB27B84CA
:104E200007F11C0207F124033968184606F002FA5C
:104E3000034687F8393097F83930002B00F081802D
:104E40007868FFF789F978637B6B1B7A002B06D0B3
:104E50007B68DB6907F1240100227868984707F135
:104E60001C0319467868FFF71AF907F11C0207F1CD
:104E70002C033968184606F0DDF9034687F8393007
:104E800097F83930002B4FD07B680433184606F072
:104E900010FEF86345E007F10C031946F86BFFF7C5
:104EA000FEF8FB6B9B8E7B87B7F90C309AB27B8F39
:104EB000D31A9BB21BB2BB81B7F90E309AB27B8F6B
:104EC000D31A9BB21BB2FB81B7F910309AB27B8F19
:104ED00013449BB21BB23B82B7F912309AB27B8F5C
:104EE00013449BB21BB27B8207F10C0207F12C0129
:104EF00007F11403184606F09DF9034687F8393088
:104F000097F83930002B05D007F114031946F86BD8
:104F1000FFF74FFF7B680433F96B184606F0F4FD8A
:104F2000F863FB6B002BB6D17B6B1B7A002B08D090
:104F30007B68DB6907F1240101227868984700E06B
:104F400000BF4037BD4680BDB0B400AF994A13786A
:104F50006FF300031370974BFF221A72954A964B1A
:104F60001B885380934A944B1B889380914B00225B
:104F7000DA80904B0822DA828E4B08221A838D4BFE
:104F800008225A838B4A937A6FF304039372894AF7
:104F900053896FF34A135381864AD37A6FF3C70359
:104FA000D372844BFF22DA73824B00229A81814BA9
:104FB0000F229A737F4A814B1B8813827D4B0122FB
:104FC0001A757C4B00225A827A4BFF2283F82C20E0
:104FD000784A7B4B1B881384764B7A4A5A62754B0E
:104FE00002221A85734B02225A85724BFF2283F8E4
:104FF0003320704A744B1B8813866E4B002283F853
:1050000032206C4BFF2283F838206A4A6E4B1B8893
:105010009386684B0222DA86664A92F839306FF33B
:10502000000382F83930694A624B14461D460FCDA1
:105030000FC40FCD0FC40FCD0FC495E8070084E84F
:105040000700634A614B14461D460FCD0FC40FCDB8
:105050000FC40FCD0FC495E8070084E807005C4A31
:105060005C4B1B8813845A4A5A4B1B881386584A38
:10507000584B1B889386564A574B1B885380544A7B
:10508000534B5B889380554A504B14461D460FCDB9
:105090000FC40FCD0FC40FCD0FC495E8070084E8EF
:1050A00007004E4A484B1B8813844C4A464B1B88CA
:1050B00013864A4A444B1B889386484A3E4B1B88BA
:1050C0005380464A464B1B889380444B0622DA8025
:1050D000424A444B1B885381404B02229A813F4BEA
:1050E0004C22DA73404A3D4B14461D460FCD0FC487
:1050F0000FCD0FC40FCD0FC495E8070084E807005B
:10510000394A3A4B1B881384374A384B1B8813861D
:10511000354A334B1B889386334A354B1B88538063
:10512000314A344B1B8893802F4A334B1B88538161
:10513000324A264B14461D460FCD0FC40FCD0FC467
:105140000FCD0FC495E8070084E807002B4A137FB2
:1051500043F001031377294A137843F001031370D6
:10516000264B00229A81264A244B14461D460FCD19
:105170000FC40FCD0FC40FCD0FC495E8070084E80E
:1051800007001F4B00221A831D4B0022DA821D4AA2
:105190001B4B14461D460FCD0FC40FCD0FC40FCDB2
:1051A0000FC495E8070084E80700164B00225A83D5
:1051B0002AE000BFE84F00203C0E0108400E010825
:1051C000440E01084C000020480E0108704F0020DA
:1051D000605000204C0E0108500E0108804E002047
:1051E000540E0108580E0108904D00205C0E010875
:1051F000600E0108640E0108680E0108CC4D002005
:10520000344F0020BC4E0020724A734B14461D469A
:105210000FCD0FC40FCD0FC40FCD0FC495E80700FD
:1052200084E807006B4A6D4B1B885380694A6C4BBE
:105230001B889380674B0622DA80664B19221A83FB
:10524000644B1022DA82634B0A225A83614A654B0F
:105250001B8853815F4B02229A815E4BB222DA7324
:105260005C4A614B1B8813845A4A604B1B8813822B
:10527000584B00225A825E4A564B14461D460FCDAB
:105280000FC40FCD0FC40FCD0FC495E8070084E8FD
:105290000700574A574B1B885380554A564B1B886B
:1052A0009380534A554B1B881384514A534B1B8898
:1052B00013864F4A514B1B889386514A454B1446DF
:1052C0001D460FCD0FC40FCD0FC40FCD0FC495E8F1
:1052D000070084E807004A4A4A4B1B885380484A23
:1052E000444B1B889380464A937A012161F304035F
:1052F0009372434A5389012161F34A135381404A0F
:10530000D37A6FF3C703D3723D4A3F4B1B88138494
:105310003B4A3D4B1B881386394A3B4B1B8893867F
:105320003A4A374B14461D460FCD0FC40FCD0FC45C
:105330000FCD0FC495E8070084E80700334A93783F
:10534000042161F304039370304A5388052161F30B
:105350004A1353802D4AD3786FF3C703D3702B4A77
:105360002B4B1B889380294A244B1B881384274A84
:10537000224B1B881386254A204B1B889386254A7F
:10538000144B14461D460FCD0FC40FCD0FC40FCDC7
:105390000FC495E8070084E807001E4A1E4B1B88CF
:1053A00053801C4A1C4B1B8893801A4A1B4B1B883A
:1053B0005381184A1A4B1B881384164A184B1B88B2
:1053C0001386144A164B1B88938600BFBD46B0BC9B
:1053D000704700BF084E0020704F00206C0E01087F
:1053E000700E0108740E01083C0E0108400E010801
:1053F000444E0020780E01087C0E0108800E010842
:10540000AC4F0020840E0108880E010824500020B3
:105410008C0E0108F84E0020900E0108940E010831
:10542000980E010880B582B000AF786039603C22E8
:10543000396878680BF062FB00BF0837BD4680BD55
:1054400080B400AF00BF084B1B78DBB2012BFAD150
:10545000064B9B68082B01D1002300E0034B184644
:10546000BD4680BC704700BF180000201C00002013
:1054700090B585B002AFFFF7E3FF78607B68002B43
:1054800019D00F4B02221A707B68B3F9003018460E
:105490007B68B3F9023019467B68B3F904301A46C9
:1054A0007B68B3F906301C467B689B6800932346F3
:1054B00005F06CFB00E000BF0C37BD4690BD00BF9F
:1054C0001800002080B400AF034B01221A7000BF07
:1054D000BD4680BC704700BF1800002080B483B078
:1054E00000AF0346FB800B46BB801346FB70B7F949
:1054F0000630002B01D1002321E0B7F90630072B3D
:1055000010DCB7F90630013B0F4A52F82320B7F9F7
:10551000043013441B781A46FB7803FB02F31B0A82
:10552000DBB20CE0B7F904305B000133FA7802FB20
:1055300003F2B7F906305B0092FBF3F3DBB21846D7
:105540000C37BD4680BC70472800002080B483B073
:1055500000AF78607B68B3F904309AB27B68B3F926
:1055600000309BB2D31A9BB201339BB21BB21846D8
:105570000C37BD4680BC704780B483B000AF786004
:105580007B6893F8203018460C37BD4680BC7047C6
:1055900090B59DB004AFF860B9607A60FB707B682D
:1055A0005B6ABB6497F8743003F00203002B06D1EA
:1055B000F868FFF7CBFF0346A7F85E3018E07B687A
:1055C000596A7B68B3F928407B68B3F92A3007F140
:1055D0001C0097F87420029243F6FF720192009328
:1055E00023460A46396F06F0FDFEBB8BA7F85E30F6
:1055F0000023A7F846300023BB657B68B3F9282059
:10560000B7F95E1097F8743000930B46B96C386F99
:1056100006F09AFF03467B65FB68B3F900303B85D3
:10562000FB68B3F902307B8597F8743003F004030C
:10563000002B2AD03A6FBB6DD0187B6D9AB2BB6D30
:105640009BB2D31A99B27B68B3F9282097F87430CB
:1056500000931346BA6C07F01FF80346A7F84630CC
:10566000F868FFF773FF03461A46B7F94630D31AB6
:10567000DA0F13445B101946B7F928309AB28BB28F
:1056800013449BB21BB23B852BE097F8743003F0B8
:105690000803002B25D03A6FBB6DD0187B6D9AB2F2
:1056A000BB6D9BB2D31A99B27B68B3F9282097F8E7
:1056B000743000931346BA6C06F0EEFF0346A7F869
:1056C0004630F868FFF742FF03461A46B7F94630FE
:1056D000D31AB7F9282092B29BB213449BB21BB2E3
:1056E0003B85FB78FF2B03D17B6893F82C300BE0D4
:1056F0007B6893F82C309BB2FA7892B202FB03F3EA
:105700009BB21B0A9BB2DBB287F84530002387F8B7
:1057100053300023A7F850300023A7F84E30002361
:10572000A7F84230BB6F002B00F07C81BB6F1B8859
:10573000A7F84E30BB6F5B88A7F84230B7F92A3024
:105740009AB2B7F8423013449BB21BB27B8569E131
:10575000BB6F002B08D0B7F928309AB2B7F84E309B
:1057600013449BB21BB23B85002387F85330BB6DBB
:105770007B62C3E0B14B1B6807F124021146386F0E
:105780009847F86397F8743003F00103002B00F09A
:10579000888023231A46FB6B93421AD197F8533023
:1057A000002B06D17B6AA7F85030012387F85330CD
:1057B000A4E097F85330012B03D1002387F853302E
:1057C00007E097F85330022B03D1002387F85330BA
:1057D00094E097F85330012B63D1FB6B202B40F002
:1057E0008C807A6AB7F85030D31A072B52D1B7F8A9
:1057F00050303A6FD11807F11003062218460BF00B
:105800007DF90023BB753B7C184600F01BF903466D
:105810001C017B7C184600F015F903462344BB634A
:10582000BB7C184600F00EF903461C01FB7C1846B1
:1058300000F008F9034623447B633B7D184600F0E3
:1058400001F903461C017B7D184600F0FBF8034676
:1058500023443B633B6BDB1003F01F03D8B27B6B2D
:105860009B1003F03F03D9B2BB6BDB1003F01F03A7
:10587000DAB297F8203060F3040387F820303B8CCD
:1058800061F34A133B8497F8213062F3C70387F82A
:10589000213002E07B681B8C3B84022387F8533065
:1058A0002BE07B681B8C3B8397F85330022B01D194
:1058B0003B8C3B83624B1C6807F1280097F845300E
:1058C00001933B8BADF80030FB6BBA6CB968A04715
:1058D000F96BB86C05F09FFE0346FB85B7F92830DD
:1058E0009AB27B68B3F9283099B2FB8D0B449BB216
:1058F00013449BB21BB23B8500E000BF7B6A7A6D0C
:105900009A423FF637AF7B6DBB653A6FBB6DD018DF
:105910007B68B3F92820B7F95E1097F874300093CC
:105920000B46B96C06F010FE03461A467B6D134415
:105930007B65FB68B3F900303B8597F8743003F062
:105940000403002B2AD03A6FBB6DD0187B6D9AB23E
:10595000BB6D9BB2D31A99B27B68B3F9282097F834
:10596000743000931346BA6C06F096FE0346A7F80F
:105970004630F868FFF7EAFD03461A46B7F94630A5
:10598000D31ADA0F13445B101946B7F928309AB2CC
:105990008BB213449BB21BB23B852BE097F874305B
:1059A00003F00803002B25D03A6FBB6DD0187B6D38
:1059B0009AB2BB6D9BB2D31A99B27B68B3F9282017
:1059C00097F8743000931346BA6C06F065FE0346F0
:1059D000A7F84630F868FFF7B9FD03461A46B7F94D
:1059E0004630D31AB7F9282092B29BB213449BB227
:1059F0001BB23B85B86CFFF7BFFD03461946B7F9EC
:105A00002A309AB28BB213449BB21BB27B85B7F992
:105A10002A309AB27B68B3F92A309BB213449BB206
:105A20001BB27B853A6FBB6D13441B78002B7FF450
:105A30008FAE00BF6437BD4690BD00BFA8000020F8
:105A4000A40E010880B483B000AF0346FB71FB795C
:105A50002F2B06D9FB79392B03D8FB79303BDBB2EE
:105A600025E0FB79602B02D9FB79203BFB71FB79A8
:105A7000413B052B1AD801A252F823F0955A000891
:105A8000995A00089D5A0008A15A0008A55A000812
:105A9000A95A00080A230AE00B2308E00C2306E0B9
:105AA0000D2304E00E2302E00F2300E0002318463C
:105AB0000C37BD4680BC704780B485B000AFB8805D
:105AC00039801346FB707B79C3F3C403DBB29BB20E
:105AD000FA7892B202FB03F39AB27B78C3F3C40361
